{
  "address": "0xa513E6E4b8f2a923D98304ec87F64353C4D5C853",
  "abi": [
    {
      "anonymous": false,
      "inputs": [
        {
          "indexed": true,
          "internalType": "address",
          "name": "previousOwner",
          "type": "address"
        },
        {
          "indexed": true,
          "internalType": "address",
          "name": "newOwner",
          "type": "address"
        }
      ],
      "name": "OwnershipTransferred",
      "type": "event"
    },
    {
      "anonymous": false,
      "inputs": [
        {
          "indexed": false,
          "internalType": "uint256",
          "name": "newValue",
          "type": "uint256"
        }
      ],
      "name": "ValueChanged",
      "type": "event"
    },
    {
      "inputs": [],
      "name": "getGoodGuys",
      "outputs": [
        {
          "internalType": "address[]",
          "name": "",
          "type": "address[]"
        }
      ],
      "stateMutability": "view",
      "type": "function"
    },
    {
      "inputs": [],
      "name": "getName",
      "outputs": [
        {
          "internalType": "string",
          "name": "",
          "type": "string"
        }
      ],
      "stateMutability": "view",
      "type": "function"
    },
    {
      "inputs": [],
      "name": "getNumbers8bit",
      "outputs": [
        {
          "internalType": "uint8[]",
          "name": "",
          "type": "uint8[]"
        }
      ],
      "stateMutability": "view",
      "type": "function"
    },
    {
      "inputs": [],
      "name": "owner",
      "outputs": [
        {
          "internalType": "address",
          "name": "",
          "type": "address"
        }
      ],
      "stateMutability": "view",
      "type": "function"
    },
    {
      "inputs": [],
      "name": "renounceOwnership",
      "outputs": [],
      "stateMutability": "nonpayable",
      "type": "function"
    },
    {
      "inputs": [],
      "name": "retrieve",
      "outputs": [
        {
          "internalType": "uint256",
          "name": "",
          "type": "uint256"
        }
      ],
      "stateMutability": "view",
      "type": "function"
    },
    {
      "inputs": [
        {
          "internalType": "address[]",
          "name": "_goodGuys",
          "type": "address[]"
        }
      ],
      "name": "setGoodGuys",
      "outputs": [],
      "stateMutability": "nonpayable",
      "type": "function"
    },
    {
      "inputs": [
        {
          "internalType": "string",
          "name": "_name",
          "type": "string"
        }
      ],
      "name": "setName",
      "outputs": [],
      "stateMutability": "nonpayable",
      "type": "function"
    },
    {
      "inputs": [
        {
          "internalType": "uint8[]",
          "name": "_numbers8bit",
          "type": "uint8[]"
        }
      ],
      "name": "setNumbers8bit",
      "outputs": [],
      "stateMutability": "nonpayable",
      "type": "function"
    },
    {
      "inputs": [
        {
          "internalType": "uint256",
          "name": "newValue",
          "type": "uint256"
        }
      ],
      "name": "store",
      "outputs": [],
      "stateMutability": "nonpayable",
      "type": "function"
    },
    {
      "inputs": [
        {
          "internalType": "address",
          "name": "newOwner",
          "type": "address"
        }
      ],
      "name": "transferOwnership",
      "outputs": [],
      "stateMutability": "nonpayable",
      "type": "function"
    }
  ],
  "transactionHash": "0x6e449ce3e7901bb67d6f4bfce20d07cf41d6d0f9422dc4c090af75df4c0f913c",
  "args": [],
  "numDeployments": 1,
  "solcInputHash": "f94c02ebb475c06c45aa774f4d758229",
  "bytecode": "0x608060405234801561001057600080fd5b5061001a3361001f565b61006f565b600080546001600160a01b038381166001600160a01b0319831681178455604051919092169283917f8be0079c531659141344cd1fd0a4f28419497f9722a3daafe3b4186f6b6457e09190a35050565b610a6c8061007e6000396000f3fe608060405234801561001057600080fd5b50600436106100c95760003560e01c8063715018a611610081578063c011bc0f1161005b578063c011bc0f14610172578063c47f002714610185578063f2fde38b1461019857600080fd5b8063715018a61461013a578063866c504a146101425780638da5cb5b1461015757600080fd5b80632e64cec1116100b25780632e64cec114610101578063332a5bc1146101125780636057361d1461012757600080fd5b806309854291146100ce57806317d7de7c146100ec575b600080fd5b6100d66101ab565b6040516100e39190610694565b60405180910390f35b6100f4610221565b6040516100e391906106db565b6001546040519081526020016100e3565b61012561012036600461079b565b6102aa565b005b610125610135366004610841565b6102c9565b61012561030c565b61014a610320565b6040516100e3919061085a565b6000546040516001600160a01b0390911681526020016100e3565b6101256101803660046108b7565b610381565b610125610193366004610944565b61039c565b6101256101a63660046109d9565b6103b7565b6060600380548060200260200160405190810160405280929190818152602001828054801561021757602002820191906000526020600020906000905b825461010083900a900460ff168152602060019283018181049485019490930390920291018084116101e85790505b5050505050905090565b606060028054610230906109fb565b80601f016020809104026020016040519081016040528092919081815260200182805461025c906109fb565b80156102175780601f1061027e57610100808354040283529160200191610217565b820191906000526020600020905b81548152906001019060200180831161028c57509395945050505050565b6102b261044c565b80516102c5906003906020840190610503565b5050565b6102d161044c565b60018190556040518181527f93fe6d397c74fdf1402a8b72e47b68512f0510d7b98a4bc4cbdf6ac7108b3c599060200160405180910390a150565b61031461044c565b61031e60006104a6565b565b6060600480548060200260200160405190810160405280929190818152602001828054801561021757602002820191906000526020600020905b81546001600160a01b0316815260019091019060200180831161035a575050505050905090565b61038961044c565b80516102c59060049060208401906105a9565b6103a461044c565b80516102c590600290602084019061060b565b6103bf61044c565b6001600160a01b0381166104405760405162461bcd60e51b815260206004820152602660248201527f4f776e61626c653a206e6577206f776e657220697320746865207a65726f206160448201527f646472657373000000000000000000000000000000000000000000000000000060648201526084015b60405180910390fd5b610449816104a6565b50565b6000546001600160a01b0316331461031e5760405162461bcd60e51b815260206004820181905260248201527f4f776e61626c653a2063616c6c6572206973206e6f7420746865206f776e65726044820152606401610437565b600080546001600160a01b0383811673ffffffffffffffffffffffffffffffffffffffff19831681178455604051919092169283917f8be0079c531659141344cd1fd0a4f28419497f9722a3daafe3b4186f6b6457e09190a35050565b82805482825590600052602060002090601f016020900481019282156105995791602002820160005b8382111561056a57835183826101000a81548160ff021916908360ff160217905550926020019260010160208160000104928301926001030261052c565b80156105975782816101000a81549060ff021916905560010160208160000104928301926001030261056a565b505b506105a592915061067f565b5090565b828054828255906000526020600020908101928215610599579160200282015b82811115610599578251825473ffffffffffffffffffffffffffffffffffffffff19166001600160a01b039091161782556020909201916001909101906105c9565b828054610617906109fb565b90600052602060002090601f0160209004810192826106395760008555610599565b82601f1061065257805160ff1916838001178555610599565b82800160010185558215610599579182015b82811115610599578251825591602001919060010190610664565b5b808211156105a55760008155600101610680565b6020808252825182820181905260009190848201906040850190845b818110156106cf57835160ff16835292840192918401916001016106b0565b50909695505050505050565b600060208083528351808285015260005b81811015610708578581018301518582016040015282016106ec565b8181111561071a576000604083870101525b50601f01601f1916929092016040019392505050565b634e487b7160e01b600052604160045260246000fd5b604051601f8201601f1916810167ffffffffffffffff8111828210171561076f5761076f610730565b604052919050565b600067ffffffffffffffff82111561079157610791610730565b5060051b60200190565b600060208083850312156107ae57600080fd5b823567ffffffffffffffff8111156107c557600080fd5b8301601f810185136107d657600080fd5b80356107e96107e482610777565b610746565b81815260059190911b8201830190838101908783111561080857600080fd5b928401925b8284101561083657833560ff811681146108275760008081fd5b8252928401929084019061080d565b979650505050505050565b60006020828403121561085357600080fd5b5035919050565b6020808252825182820181905260009190848201906040850190845b818110156106cf5783516001600160a01b031683529284019291840191600101610876565b80356001600160a01b03811681146108b257600080fd5b919050565b600060208083850312156108ca57600080fd5b823567ffffffffffffffff8111156108e157600080fd5b8301601f810185136108f257600080fd5b80356109006107e482610777565b81815260059190911b8201830190838101908783111561091f57600080fd5b928401925b82841015610836576109358461089b565b82529284019290840190610924565b6000602080838503121561095757600080fd5b823567ffffffffffffffff8082111561096f57600080fd5b818501915085601f83011261098357600080fd5b81358181111561099557610995610730565b6109a7601f8201601f19168501610746565b915080825286848285010111156109bd57600080fd5b8084840185840137600090820190930192909252509392505050565b6000602082840312156109eb57600080fd5b6109f48261089b565b9392505050565b600181811c90821680610a0f57607f821691505b60208210811415610a3057634e487b7160e01b600052602260045260246000fd5b5091905056fea26469706673582212206be08fc2e26566c8c6642826272ebc55490f0c32f9653e309f71b4a2c8ccfac164736f6c63430008080033",
  "devdoc": {
    "kind": "dev",
    "methods": {
      "owner()": {
        "details": "Returns the address of the current owner."
      },
      "renounceOwnership()": {
        "details": "Leaves the contract without owner. It will not be possible to call `onlyOwner` functions. Can only be called by the current owner. NOTE: Renouncing ownership will leave the contract without an owner, thereby disabling any functionality that is only available to the owner."
      },
      "transferOwnership(address)": {
        "details": "Transfers ownership of the contract to a new account (`newOwner`). Can only be called by the current owner."
      }
    },
    "version": 1
  },
  "userdoc": {
    "kind": "user",
    "methods": {},
    "version": 1
  },
  "storageLayout": {
    "storage": [
      {
        "astId": 7,
        "contract": "contracts/Box.sol:Box",
        "label": "_owner",
        "offset": 0,
        "slot": "0",
        "type": "t_address"
      },
      {
        "astId": 141,
        "contract": "contracts/Box.sol:Box",
        "label": "value",
        "offset": 0,
        "slot": "1",
        "type": "t_uint256"
      },
      {
        "astId": 143,
        "contract": "contracts/Box.sol:Box",
        "label": "name",
        "offset": 0,
        "slot": "2",
        "type": "t_string_storage"
      },
      {
        "astId": 146,
        "contract": "contracts/Box.sol:Box",
        "label": "numbers8bit",
        "offset": 0,
        "slot": "3",
        "type": "t_array(t_uint8)dyn_storage"
      },
      {
        "astId": 149,
        "contract": "contracts/Box.sol:Box",
        "label": "goodGuys",
        "offset": 0,
        "slot": "4",
        "type": "t_array(t_address)dyn_storage"
      }
    ],
    "types": {
      "t_address": {
        "encoding": "inplace",
        "label": "address",
        "numberOfBytes": "20"
      },
      "t_array(t_address)dyn_storage": {
        "base": "t_address",
        "encoding": "dynamic_array",
        "label": "address[]",
        "numberOfBytes": "32"
      },
      "t_array(t_uint8)dyn_storage": {
        "base": "t_uint8",
        "encoding": "dynamic_array",
        "label": "uint8[]",
        "numberOfBytes": "32"
      },
      "t_string_storage": {
        "encoding": "bytes",
        "label": "string",
        "numberOfBytes": "32"
      },
      "t_uint256": {
        "encoding": "inplace",
        "label": "uint256",
        "numberOfBytes": "32"
      },
      "t_uint8": {
        "encoding": "inplace",
        "label": "uint8",
        "numberOfBytes": "1"
      }
    }
  }
}