{
  "_format": "hh-sol-artifact-1",
  "contractName": "PartialRefund",
  "sourceName": "contracts/PartialRefund.sol",
  "abi": [
    {
      "inputs": [
        {
          "internalType": "address",
          "name": "specialAddress",
          "type": "address"
        }
      ],
      "stateMutability": "nonpayable",
      "type": "constructor"
    },
    {
      "anonymous": false,
      "inputs": [
        {
          "indexed": true,
          "internalType": "address",
          "name": "owner",
          "type": "address"
        },
        {
          "indexed": true,
          "internalType": "address",
          "name": "spender",
          "type": "address"
        },
        {
          "indexed": false,
          "internalType": "uint256",
          "name": "value",
          "type": "uint256"
        }
      ],
      "name": "Approval",
      "type": "event"
    },
    {
      "anonymous": false,
      "inputs": [
        {
          "indexed": true,
          "internalType": "address",
          "name": "from",
          "type": "address"
        },
        {
          "indexed": true,
          "internalType": "address",
          "name": "to",
          "type": "address"
        },
        {
          "indexed": false,
          "internalType": "uint256",
          "name": "value",
          "type": "uint256"
        }
      ],
      "name": "Transfer",
      "type": "event"
    },
    {
      "inputs": [
        {
          "internalType": "address",
          "name": "owner",
          "type": "address"
        },
        {
          "internalType": "address",
          "name": "spender",
          "type": "address"
        }
      ],
      "name": "allowance",
      "outputs": [
        {
          "internalType": "uint256",
          "name": "",
          "type": "uint256"
        }
      ],
      "stateMutability": "view",
      "type": "function"
    },
    {
      "inputs": [
        {
          "internalType": "address",
          "name": "spender",
          "type": "address"
        },
        {
          "internalType": "uint256",
          "name": "amount",
          "type": "uint256"
        }
      ],
      "name": "approve",
      "outputs": [
        {
          "internalType": "bool",
          "name": "",
          "type": "bool"
        }
      ],
      "stateMutability": "nonpayable",
      "type": "function"
    },
    {
      "inputs": [
        {
          "internalType": "address",
          "name": "account",
          "type": "address"
        }
      ],
      "name": "balanceOf",
      "outputs": [
        {
          "internalType": "uint256",
          "name": "",
          "type": "uint256"
        }
      ],
      "stateMutability": "view",
      "type": "function"
    },
    {
      "inputs": [],
      "name": "buy",
      "outputs": [],
      "stateMutability": "payable",
      "type": "function"
    },
    {
      "inputs": [],
      "name": "decimals",
      "outputs": [
        {
          "internalType": "uint8",
          "name": "",
          "type": "uint8"
        }
      ],
      "stateMutability": "view",
      "type": "function"
    },
    {
      "inputs": [
        {
          "internalType": "address",
          "name": "spender",
          "type": "address"
        },
        {
          "internalType": "uint256",
          "name": "subtractedValue",
          "type": "uint256"
        }
      ],
      "name": "decreaseAllowance",
      "outputs": [
        {
          "internalType": "bool",
          "name": "",
          "type": "bool"
        }
      ],
      "stateMutability": "nonpayable",
      "type": "function"
    },
    {
      "inputs": [
        {
          "internalType": "address",
          "name": "spender",
          "type": "address"
        },
        {
          "internalType": "uint256",
          "name": "addedValue",
          "type": "uint256"
        }
      ],
      "name": "increaseAllowance",
      "outputs": [
        {
          "internalType": "bool",
          "name": "",
          "type": "bool"
        }
      ],
      "stateMutability": "nonpayable",
      "type": "function"
    },
    {
      "inputs": [],
      "name": "name",
      "outputs": [
        {
          "internalType": "string",
          "name": "",
          "type": "string"
        }
      ],
      "stateMutability": "view",
      "type": "function"
    },
    {
      "inputs": [
        {
          "internalType": "uint256",
          "name": "amount",
          "type": "uint256"
        }
      ],
      "name": "sellBack",
      "outputs": [],
      "stateMutability": "nonpayable",
      "type": "function"
    },
    {
      "inputs": [],
      "name": "symbol",
      "outputs": [
        {
          "internalType": "string",
          "name": "",
          "type": "string"
        }
      ],
      "stateMutability": "view",
      "type": "function"
    },
    {
      "inputs": [],
      "name": "totalSupply",
      "outputs": [
        {
          "internalType": "uint256",
          "name": "",
          "type": "uint256"
        }
      ],
      "stateMutability": "view",
      "type": "function"
    },
    {
      "inputs": [
        {
          "internalType": "address",
          "name": "to",
          "type": "address"
        },
        {
          "internalType": "uint256",
          "name": "amount",
          "type": "uint256"
        }
      ],
      "name": "transfer",
      "outputs": [
        {
          "internalType": "bool",
          "name": "",
          "type": "bool"
        }
      ],
      "stateMutability": "nonpayable",
      "type": "function"
    },
    {
      "inputs": [
        {
          "internalType": "address",
          "name": "from",
          "type": "address"
        },
        {
          "internalType": "address",
          "name": "to",
          "type": "address"
        },
        {
          "internalType": "uint256",
          "name": "amount",
          "type": "uint256"
        }
      ],
      "name": "transferFrom",
      "outputs": [
        {
          "internalType": "bool",
          "name": "",
          "type": "bool"
        }
      ],
      "stateMutability": "nonpayable",
      "type": "function"
    },
    {
      "inputs": [
        {
          "internalType": "address payable",
          "name": "to",
          "type": "address"
        }
      ],
      "name": "withdrawEthereum",
      "outputs": [],
      "stateMutability": "nonpayable",
      "type": "function"
    },
    {
      "inputs": [
        {
          "internalType": "address",
          "name": "to",
          "type": "address"
        }
      ],
      "name": "withdrawTokenToExternalAddress",
      "outputs": [],
      "stateMutability": "nonpayable",
      "type": "function"
    }
  ],
  "bytecode": "0x6080604052620000146200016360201b60201c565b600a62000022919062000306565b600655600654620f424062000038919062000357565b6007556000600860006101000a81548160ff0219169083151502179055503480156200006357600080fd5b50604051620027303803806200273083398181016040528101906200008991906200040c565b6040518060400160405280600b81526020017f4d6574616e61546f6b656e0000000000000000000000000000000000000000008152506040518060400160405280600381526020017f4d544b00000000000000000000000000000000000000000000000000000000008152508160039081620001069190620006ae565b508060049081620001189190620006ae565b50505080600560006101000a81548173ffffffffffffffffffffffffffffffffffffffff021916908373ffffffffffffffffffffffffffffffffffffffff1602179055505062000795565b60006012905090565b7f4e487b7100000000000000000000000000000000000000000000000000000000600052601160045260246000fd5b60008160011c9050919050565b6000808291508390505b6001851115620001fa57808604811115620001d257620001d16200016c565b5b6001851615620001e25780820291505b8081029050620001f2856200019b565b9450620001b2565b94509492505050565b600082620002155760019050620002e8565b81620002255760009050620002e8565b81600181146200023e576002811462000249576200027f565b6001915050620002e8565b60ff8411156200025e576200025d6200016c565b5b8360020a9150848211156200027857620002776200016c565b5b50620002e8565b5060208310610133831016604e8410600b8410161715620002b95782820a905083811115620002b357620002b26200016c565b5b620002e8565b620002c88484846001620001a8565b92509050818404811115620002e257620002e16200016c565b5b81810290505b9392505050565b6000819050919050565b600060ff82169050919050565b60006200031382620002ef565b91506200032083620002f9565b92506200034f7fffffffffffffffffffffffffffffffffffffffffffffffffffffffffffffffff848462000203565b905092915050565b60006200036482620002ef565b91506200037183620002ef565b92508282026200038181620002ef565b915082820484148315176200039b576200039a6200016c565b5b5092915050565b600080fd5b600073ffffffffffffffffffffffffffffffffffffffff82169050919050565b6000620003d482620003a7565b9050919050565b620003e681620003c7565b8114620003f257600080fd5b50565b6000815190506200040681620003db565b92915050565b600060208284031215620004255762000424620003a2565b5b60006200043584828501620003f5565b91505092915050565b600081519050919050565b7f4e487b7100000000000000000000000000000000000000000000000000000000600052604160045260246000fd5b7f4e487b7100000000000000000000000000000000000000000000000000000000600052602260045260246000fd5b60006002820490506001821680620004c057607f821691505b602082108103620004d657620004d562000478565b5b50919050565b60008190508160005260206000209050919050565b60006020601f8301049050919050565b600082821b905092915050565b600060088302620005407fffffffffffffffffffffffffffffffffffffffffffffffffffffffffffffffff8262000501565b6200054c868362000501565b95508019841693508086168417925050509392505050565b6000819050919050565b60006200058f620005896200058384620002ef565b62000564565b620002ef565b9050919050565b6000819050919050565b620005ab836200056e565b620005c3620005ba8262000596565b8484546200050e565b825550505050565b600090565b620005da620005cb565b620005e7818484620005a0565b505050565b5b818110156200060f5762000603600082620005d0565b600181019050620005ed565b5050565b601f8211156200065e576200062881620004dc565b6200063384620004f1565b8101602085101562000643578190505b6200065b6200065285620004f1565b830182620005ec565b50505b505050565b600082821c905092915050565b6000620006836000198460080262000663565b1980831691505092915050565b60006200069e838362000670565b9150826002028217905092915050565b620006b9826200043e565b67ffffffffffffffff811115620006d557620006d462000449565b5b620006e18254620004a7565b620006ee82828562000613565b600060209050601f83116001811462000726576000841562000711578287015190505b6200071d858262000690565b8655506200078d565b601f1984166200073686620004dc565b60005b82811015620007605784890151825560018201915060208501945060208101905062000739565b868310156200078057848901516200077c601f89168262000670565b8355505b6001600288020188555050505b505050505050565b611f8b80620007a56000396000f3fe6080604052600436106100e85760003560e01c806370a082311161008a578063a6f2ae3a11610059578063a6f2ae3a1461031c578063a9059cbb14610326578063ad5d4bc514610363578063dd62ed3e1461038c576100e8565b806370a082311461024e5780638cdaef4f1461028b57806395d89b41146102b4578063a457c2d7146102df576100e8565b806323b872dd116100c657806323b872dd14610180578063313ce567146101bd57806339509351146101e85780633fed03fe14610225576100e8565b806306fdde03146100ed578063095ea7b31461011857806318160ddd14610155575b600080fd5b3480156100f957600080fd5b506101026103c9565b60405161010f91906112d0565b60405180910390f35b34801561012457600080fd5b5061013f600480360381019061013a919061138b565b61045b565b60405161014c91906113e6565b60405180910390f35b34801561016157600080fd5b5061016a61047e565b6040516101779190611410565b60405180910390f35b34801561018c57600080fd5b506101a760048036038101906101a2919061142b565b610488565b6040516101b491906113e6565b60405180910390f35b3480156101c957600080fd5b506101d26104b7565b6040516101df919061149a565b60405180910390f35b3480156101f457600080fd5b5061020f600480360381019061020a919061138b565b6104c0565b60405161021c91906113e6565b60405180910390f35b34801561023157600080fd5b5061024c600480360381019061024791906114f3565b6104f7565b005b34801561025a57600080fd5b5061027560048036038101906102709190611520565b61063d565b6040516102829190611410565b60405180910390f35b34801561029757600080fd5b506102b260048036038101906102ad9190611520565b610685565b005b3480156102c057600080fd5b506102c961072b565b6040516102d691906112d0565b60405180910390f35b3480156102eb57600080fd5b506103066004803603810190610301919061138b565b6107bd565b60405161031391906113e6565b60405180910390f35b610324610834565b005b34801561033257600080fd5b5061034d6004803603810190610348919061138b565b610951565b60405161035a91906113e6565b60405180910390f35b34801561036f57600080fd5b5061038a6004803603810190610385919061154d565b610974565b005b34801561039857600080fd5b506103b360048036038101906103ae919061157a565b610b86565b6040516103c09190611410565b60405180910390f35b6060600380546103d8906115e9565b80601f0160208091040260200160405190810160405280929190818152602001828054610404906115e9565b80156104515780601f1061042657610100808354040283529160200191610451565b820191906000526020600020905b81548152906001019060200180831161043457829003601f168201915b5050505050905090565b600080610466610c0d565b9050610473818585610c15565b600191505092915050565b6000600254905090565b600080610493610c0d565b90506104a0858285610dde565b6104ab858585610e6a565b60019150509392505050565b60006012905090565b6000806104cb610c0d565b90506104ec8185856104dd8589610b86565b6104e79190611649565b610c15565b600191505092915050565b600560009054906101000a900473ffffffffffffffffffffffffffffffffffffffff1673ffffffffffffffffffffffffffffffffffffffff163373ffffffffffffffffffffffffffffffffffffffff1614610587576040517f08c379a000000000000000000000000000000000000000000000000000000000815260040161057e906116ef565b60405180910390fd5b600047905060008273ffffffffffffffffffffffffffffffffffffffff16826040516105b290611740565b60006040518083038185875af1925050503d80600081146105ef576040519150601f19603f3d011682016040523d82523d6000602084013e6105f4565b606091505b5050905080610638576040517f08c379a000000000000000000000000000000000000000000000000000000000815260040161062f906117a1565b60405180910390fd5b505050565b60008060008373ffffffffffffffffffffffffffffffffffffffff1673ffffffffffffffffffffffffffffffffffffffff168152602001908152602001600020549050919050565b600560009054906101000a900473ffffffffffffffffffffffffffffffffffffffff1673ffffffffffffffffffffffffffffffffffffffff163373ffffffffffffffffffffffffffffffffffffffff1614610715576040517f08c379a000000000000000000000000000000000000000000000000000000000815260040161070c906116ef565b60405180910390fd5b61072830826107233061063d565b610e6a565b50565b60606004805461073a906115e9565b80601f0160208091040260200160405190810160405280929190818152602001828054610766906115e9565b80156107b35780601f10610788576101008083540402835291602001916107b3565b820191906000526020600020905b81548152906001019060200180831161079657829003601f168201915b5050505050905090565b6000806107c8610c0d565b905060006107d68286610b86565b90508381101561081b576040517f08c379a000000000000000000000000000000000000000000000000000000000815260040161081290611833565b60405180910390fd5b6108288286868403610c15565b60019250505092915050565b60006103e8346108449190611853565b9050600860009054906101000a900460ff16156108c05760006108663061063d565b905081811061087f5761087a303384610e6a565b6108ba565b6040517f08c379a00000000000000000000000000000000000000000000000000000000081526004016108b190611907565b60405180910390fd5b5061094e565b6007546108cb61047e565b826108d69190611649565b1115610917576040517f08c379a000000000000000000000000000000000000000000000000000000000815260040161090e90611973565b60405180910390fd5b61092133826110e0565b60075461092c61047e565b1061094d576001600860006101000a81548160ff0219169083151502179055505b5b50565b60008061095c610c0d565b9050610969818585610e6a565b600191505092915050565b600654816109829190611853565b61098b3361063d565b10156109cc576040517f08c379a00000000000000000000000000000000000000000000000000000000081526004016109c3906119df565b60405180910390fd5b60026103e8600654836109df9190611853565b6109e99190611a2e565b6109f39190611a2e565b471015610a35576040517f08c379a0000000000000000000000000000000000000000000000000000000008152600401610a2c90611aab565b60405180910390fd5b610a4d333060065484610a489190611853565b610c15565b6000610a67333060065485610a629190611853565b610488565b905080610aa9576040517f08c379a0000000000000000000000000000000000000000000000000000000008152600401610aa090611b17565b60405180910390fd5b600060026103e860065485610abe9190611853565b610ac89190611a2e565b610ad29190611a2e565b905060003373ffffffffffffffffffffffffffffffffffffffff1682604051610afa90611740565b60006040518083038185875af1925050503d8060008114610b37576040519150601f19603f3d011682016040523d82523d6000602084013e610b3c565b606091505b5050905080610b80576040517f08c379a0000000000000000000000000000000000000000000000000000000008152600401610b7790611b83565b60405180910390fd5b50505050565b6000600160008473ffffffffffffffffffffffffffffffffffffffff1673ffffffffffffffffffffffffffffffffffffffff16815260200190815260200160002060008373ffffffffffffffffffffffffffffffffffffffff1673ffffffffffffffffffffffffffffffffffffffff16815260200190815260200160002054905092915050565b600033905090565b600073ffffffffffffffffffffffffffffffffffffffff168373ffffffffffffffffffffffffffffffffffffffff1603610c84576040517f08c379a0000000000000000000000000000000000000000000000000000000008152600401610c7b90611c15565b60405180910390fd5b600073ffffffffffffffffffffffffffffffffffffffff168273ffffffffffffffffffffffffffffffffffffffff1603610cf3576040517f08c379a0000000000000000000000000000000000000000000000000000000008152600401610cea90611ca7565b60405180910390fd5b80600160008573ffffffffffffffffffffffffffffffffffffffff1673ffffffffffffffffffffffffffffffffffffffff16815260200190815260200160002060008473ffffffffffffffffffffffffffffffffffffffff1673ffffffffffffffffffffffffffffffffffffffff168152602001908152602001600020819055508173ffffffffffffffffffffffffffffffffffffffff168373ffffffffffffffffffffffffffffffffffffffff167f8c5be1e5ebec7d5bd14f71427d1e84f3dd0314c0f7b2291e5b200ac8c7c3b92583604051610dd19190611410565b60405180910390a3505050565b6000610dea8484610b86565b90507fffffffffffffffffffffffffffffffffffffffffffffffffffffffffffffffff8114610e645781811015610e56576040517f08c379a0000000000000000000000000000000000000000000000000000000008152600401610e4d90611d13565b60405180910390fd5b610e638484848403610c15565b5b50505050565b600073ffffffffffffffffffffffffffffffffffffffff168373ffffffffffffffffffffffffffffffffffffffff1603610ed9576040517f08c379a0000000000000000000000000000000000000000000000000000000008152600401610ed090611da5565b60405180910390fd5b600073ffffffffffffffffffffffffffffffffffffffff168273ffffffffffffffffffffffffffffffffffffffff1603610f48576040517f08c379a0000000000000000000000000000000000000000000000000000000008152600401610f3f90611e37565b60405180910390fd5b610f53838383611236565b60008060008573ffffffffffffffffffffffffffffffffffffffff1673ffffffffffffffffffffffffffffffffffffffff16815260200190815260200160002054905081811015610fd9576040517f08c379a0000000000000000000000000000000000000000000000000000000008152600401610fd090611ec9565b60405180910390fd5b8181036000808673ffffffffffffffffffffffffffffffffffffffff1673ffffffffffffffffffffffffffffffffffffffff16815260200190815260200160002081905550816000808573ffffffffffffffffffffffffffffffffffffffff1673ffffffffffffffffffffffffffffffffffffffff168152602001908152602001600020600082825401925050819055508273ffffffffffffffffffffffffffffffffffffffff168473ffffffffffffffffffffffffffffffffffffffff167fddf252ad1be2c89b69c2b068fc378daa952ba7f163c4a11628f55a4df523b3ef846040516110c79190611410565b60405180910390a36110da84848461123b565b50505050565b600073ffffffffffffffffffffffffffffffffffffffff168273ffffffffffffffffffffffffffffffffffffffff160361114f576040517f08c379a000000000000000000000000000000000000000000000000000000000815260040161114690611f35565b60405180910390fd5b61115b60008383611236565b806002600082825461116d9190611649565b92505081905550806000808473ffffffffffffffffffffffffffffffffffffffff1673ffffffffffffffffffffffffffffffffffffffff168152602001908152602001600020600082825401925050819055508173ffffffffffffffffffffffffffffffffffffffff16600073ffffffffffffffffffffffffffffffffffffffff167fddf252ad1be2c89b69c2b068fc378daa952ba7f163c4a11628f55a4df523b3ef8360405161121e9190611410565b60405180910390a36112326000838361123b565b5050565b505050565b505050565b600081519050919050565b600082825260208201905092915050565b60005b8381101561127a57808201518184015260208101905061125f565b60008484015250505050565b6000601f19601f8301169050919050565b60006112a282611240565b6112ac818561124b565b93506112bc81856020860161125c565b6112c581611286565b840191505092915050565b600060208201905081810360008301526112ea8184611297565b905092915050565b600080fd5b600073ffffffffffffffffffffffffffffffffffffffff82169050919050565b6000611322826112f7565b9050919050565b61133281611317565b811461133d57600080fd5b50565b60008135905061134f81611329565b92915050565b6000819050919050565b61136881611355565b811461137357600080fd5b50565b6000813590506113858161135f565b92915050565b600080604083850312156113a2576113a16112f2565b5b60006113b085828601611340565b92505060206113c185828601611376565b9150509250929050565b60008115159050919050565b6113e0816113cb565b82525050565b60006020820190506113fb60008301846113d7565b92915050565b61140a81611355565b82525050565b60006020820190506114256000830184611401565b92915050565b600080600060608486031215611444576114436112f2565b5b600061145286828701611340565b935050602061146386828701611340565b925050604061147486828701611376565b9150509250925092565b600060ff82169050919050565b6114948161147e565b82525050565b60006020820190506114af600083018461148b565b92915050565b60006114c0826112f7565b9050919050565b6114d0816114b5565b81146114db57600080fd5b50565b6000813590506114ed816114c7565b92915050565b600060208284031215611509576115086112f2565b5b6000611517848285016114de565b91505092915050565b600060208284031215611536576115356112f2565b5b600061154484828501611340565b91505092915050565b600060208284031215611563576115626112f2565b5b600061157184828501611376565b91505092915050565b60008060408385031215611591576115906112f2565b5b600061159f85828601611340565b92505060206115b085828601611340565b9150509250929050565b7f4e487b7100000000000000000000000000000000000000000000000000000000600052602260045260246000fd5b6000600282049050600182168061160157607f821691505b602082108103611614576116136115ba565b5b50919050565b7f4e487b7100000000000000000000000000000000000000000000000000000000600052601160045260246000fd5b600061165482611355565b915061165f83611355565b92508282019050808211156116775761167661161a565b5b92915050565b7f4f6e6c79207370656369616c20616464726573732063616e206d6f646966792060008201527f6461746100000000000000000000000000000000000000000000000000000000602082015250565b60006116d960248361124b565b91506116e48261167d565b604082019050919050565b60006020820190508181036000830152611708816116cc565b9050919050565b600081905092915050565b50565b600061172a60008361170f565b91506117358261171a565b600082019050919050565b600061174b8261171d565b9150819050919050565b7f4661696c656420746f2077697468647261770000000000000000000000000000600082015250565b600061178b60128361124b565b915061179682611755565b602082019050919050565b600060208201905081810360008301526117ba8161177e565b9050919050565b7f45524332303a2064656372656173656420616c6c6f77616e63652062656c6f7760008201527f207a65726f000000000000000000000000000000000000000000000000000000602082015250565b600061181d60258361124b565b9150611828826117c1565b604082019050919050565b6000602082019050818103600083015261184c81611810565b9050919050565b600061185e82611355565b915061186983611355565b925082820261187781611355565b9150828204841483151761188e5761188d61161a565b5b5092915050565b7f436f6e747261637420686173206c65737320746f6b656e7320617661696c616260008201527f6c65207468616e20726571756972656400000000000000000000000000000000602082015250565b60006118f160308361124b565b91506118fc82611895565b604082019050919050565b60006020820190508181036000830152611920816118e4565b9050919050565b7f537570706c792077696c6c20657863656564206d6178696d756d000000000000600082015250565b600061195d601a8361124b565b915061196882611927565b602082019050919050565b6000602082019050818103600083015261198c81611950565b9050919050565b7f4e6f7420656e6f75676820746f6b656e7320696e2062616c616e636500000000600082015250565b60006119c9601c8361124b565b91506119d482611993565b602082019050919050565b600060208201905081810360008301526119f8816119bc565b9050919050565b7f4e487b7100000000000000000000000000000000000000000000000000000000600052601260045260246000fd5b6000611a3982611355565b9150611a4483611355565b925082611a5457611a536119ff565b5b828204905092915050565b7f4e6f7420656e6f75676820657468657220696e20636f6e747261637400000000600082015250565b6000611a95601c8361124b565b9150611aa082611a5f565b602082019050919050565b60006020820190508181036000830152611ac481611a88565b9050919050565b7f436f756c64206e6f74207472616e736665722c20726576657274696e67000000600082015250565b6000611b01601d8361124b565b9150611b0c82611acb565b602082019050919050565b60006020820190508181036000830152611b3081611af4565b9050919050565b7f4661696c656420746f2073656e64204574686572000000000000000000000000600082015250565b6000611b6d60148361124b565b9150611b7882611b37565b602082019050919050565b60006020820190508181036000830152611b9c81611b60565b9050919050565b7f45524332303a20617070726f76652066726f6d20746865207a65726f2061646460008201527f7265737300000000000000000000000000000000000000000000000000000000602082015250565b6000611bff60248361124b565b9150611c0a82611ba3565b604082019050919050565b60006020820190508181036000830152611c2e81611bf2565b9050919050565b7f45524332303a20617070726f766520746f20746865207a65726f20616464726560008201527f7373000000000000000000000000000000000000000000000000000000000000602082015250565b6000611c9160228361124b565b9150611c9c82611c35565b604082019050919050565b60006020820190508181036000830152611cc081611c84565b9050919050565b7f45524332303a20696e73756666696369656e7420616c6c6f77616e6365000000600082015250565b6000611cfd601d8361124b565b9150611d0882611cc7565b602082019050919050565b60006020820190508181036000830152611d2c81611cf0565b9050919050565b7f45524332303a207472616e736665722066726f6d20746865207a65726f20616460008201527f6472657373000000000000000000000000000000000000000000000000000000602082015250565b6000611d8f60258361124b565b9150611d9a82611d33565b604082019050919050565b60006020820190508181036000830152611dbe81611d82565b9050919050565b7f45524332303a207472616e7366657220746f20746865207a65726f206164647260008201527f6573730000000000000000000000000000000000000000000000000000000000602082015250565b6000611e2160238361124b565b9150611e2c82611dc5565b604082019050919050565b60006020820190508181036000830152611e5081611e14565b9050919050565b7f45524332303a207472616e7366657220616d6f756e742065786365656473206260008201527f616c616e63650000000000000000000000000000000000000000000000000000602082015250565b6000611eb360268361124b565b9150611ebe82611e57565b604082019050919050565b60006020820190508181036000830152611ee281611ea6565b9050919050565b7f45524332303a206d696e7420746f20746865207a65726f206164647265737300600082015250565b6000611f1f601f8361124b565b9150611f2a82611ee9565b602082019050919050565b60006020820190508181036000830152611f4e81611f12565b905091905056fea26469706673582212200bf245e04075fb103807b0af7f252cb3a7101521207e4897d27512d616752e3c64736f6c63430008110033",
  "linkReferences": {},
  "deployedLinkReferences": {}
}