{
  "_format": "hh-sol-artifact-1",
  "contractName": "PartialRefund",
  "sourceName": "contracts/PartialRefund.sol",
  "abi": [
    {
      "inputs": [
        {
          "internalType": "address",
          "name": "specialAddress",
          "type": "address"
        }
      ],
      "stateMutability": "nonpayable",
      "type": "constructor"
    },
    {
      "anonymous": false,
      "inputs": [
        {
          "indexed": true,
          "internalType": "address",
          "name": "owner",
          "type": "address"
        },
        {
          "indexed": true,
          "internalType": "address",
          "name": "spender",
          "type": "address"
        },
        {
          "indexed": false,
          "internalType": "uint256",
          "name": "value",
          "type": "uint256"
        }
      ],
      "name": "Approval",
      "type": "event"
    },
    {
      "anonymous": false,
      "inputs": [
        {
          "indexed": true,
          "internalType": "address",
          "name": "from",
          "type": "address"
        },
        {
          "indexed": true,
          "internalType": "address",
          "name": "to",
          "type": "address"
        },
        {
          "indexed": false,
          "internalType": "uint256",
          "name": "value",
          "type": "uint256"
        }
      ],
      "name": "Transfer",
      "type": "event"
    },
    {
      "inputs": [
        {
          "internalType": "address",
          "name": "owner",
          "type": "address"
        },
        {
          "internalType": "address",
          "name": "spender",
          "type": "address"
        }
      ],
      "name": "allowance",
      "outputs": [
        {
          "internalType": "uint256",
          "name": "",
          "type": "uint256"
        }
      ],
      "stateMutability": "view",
      "type": "function"
    },
    {
      "inputs": [
        {
          "internalType": "address",
          "name": "spender",
          "type": "address"
        },
        {
          "internalType": "uint256",
          "name": "amount",
          "type": "uint256"
        }
      ],
      "name": "approve",
      "outputs": [
        {
          "internalType": "bool",
          "name": "",
          "type": "bool"
        }
      ],
      "stateMutability": "nonpayable",
      "type": "function"
    },
    {
      "inputs": [
        {
          "internalType": "address",
          "name": "account",
          "type": "address"
        }
      ],
      "name": "balanceOf",
      "outputs": [
        {
          "internalType": "uint256",
          "name": "",
          "type": "uint256"
        }
      ],
      "stateMutability": "view",
      "type": "function"
    },
    {
      "inputs": [],
      "name": "buy",
      "outputs": [],
      "stateMutability": "payable",
      "type": "function"
    },
    {
      "inputs": [],
      "name": "decimals",
      "outputs": [
        {
          "internalType": "uint8",
          "name": "",
          "type": "uint8"
        }
      ],
      "stateMutability": "view",
      "type": "function"
    },
    {
      "inputs": [
        {
          "internalType": "address",
          "name": "spender",
          "type": "address"
        },
        {
          "internalType": "uint256",
          "name": "subtractedValue",
          "type": "uint256"
        }
      ],
      "name": "decreaseAllowance",
      "outputs": [
        {
          "internalType": "bool",
          "name": "",
          "type": "bool"
        }
      ],
      "stateMutability": "nonpayable",
      "type": "function"
    },
    {
      "inputs": [
        {
          "internalType": "address",
          "name": "spender",
          "type": "address"
        },
        {
          "internalType": "uint256",
          "name": "addedValue",
          "type": "uint256"
        }
      ],
      "name": "increaseAllowance",
      "outputs": [
        {
          "internalType": "bool",
          "name": "",
          "type": "bool"
        }
      ],
      "stateMutability": "nonpayable",
      "type": "function"
    },
    {
      "inputs": [],
      "name": "name",
      "outputs": [
        {
          "internalType": "string",
          "name": "",
          "type": "string"
        }
      ],
      "stateMutability": "view",
      "type": "function"
    },
    {
      "inputs": [
        {
          "internalType": "uint256",
          "name": "amount",
          "type": "uint256"
        }
      ],
      "name": "sellBack",
      "outputs": [],
      "stateMutability": "nonpayable",
      "type": "function"
    },
    {
      "inputs": [],
      "name": "symbol",
      "outputs": [
        {
          "internalType": "string",
          "name": "",
          "type": "string"
        }
      ],
      "stateMutability": "view",
      "type": "function"
    },
    {
      "inputs": [],
      "name": "totalSupply",
      "outputs": [
        {
          "internalType": "uint256",
          "name": "",
          "type": "uint256"
        }
      ],
      "stateMutability": "view",
      "type": "function"
    },
    {
      "inputs": [
        {
          "internalType": "address",
          "name": "to",
          "type": "address"
        },
        {
          "internalType": "uint256",
          "name": "amount",
          "type": "uint256"
        }
      ],
      "name": "transfer",
      "outputs": [
        {
          "internalType": "bool",
          "name": "",
          "type": "bool"
        }
      ],
      "stateMutability": "nonpayable",
      "type": "function"
    },
    {
      "inputs": [
        {
          "internalType": "address",
          "name": "from",
          "type": "address"
        },
        {
          "internalType": "address",
          "name": "to",
          "type": "address"
        },
        {
          "internalType": "uint256",
          "name": "amount",
          "type": "uint256"
        }
      ],
      "name": "transferFrom",
      "outputs": [
        {
          "internalType": "bool",
          "name": "",
          "type": "bool"
        }
      ],
      "stateMutability": "nonpayable",
      "type": "function"
    },
    {
      "inputs": [
        {
          "internalType": "address payable",
          "name": "to",
          "type": "address"
        }
      ],
      "name": "withdrawEthereum",
      "outputs": [],
      "stateMutability": "nonpayable",
      "type": "function"
    },
    {
      "inputs": [
        {
          "internalType": "address",
          "name": "to",
          "type": "address"
        }
      ],
      "name": "withdrawTokenToExternalAddress",
      "outputs": [],
      "stateMutability": "nonpayable",
      "type": "function"
    }
  ],
  "bytecode": "0x60e06040523480156200001157600080fd5b5060405162002843380380620028438339818101604052810190620000379190620001d1565b6040518060400160405280600b81526020017f4d6574616e61546f6b656e0000000000000000000000000000000000000000008152506040518060400160405280600381526020017f4d544b00000000000000000000000000000000000000000000000000000000008152508160039081620000b491906200047d565b508060049081620000c691906200047d565b5050508073ffffffffffffffffffffffffffffffffffffffff1660808173ffffffffffffffffffffffffffffffffffffffff16815250506200010d6200015e60201b60201c565b600a6200011b9190620006f4565b60a0818152505060a051620f424062000135919062000745565b60c081815250506000600560006101000a81548160ff0219169083151502179055505062000790565b60006012905090565b600080fd5b600073ffffffffffffffffffffffffffffffffffffffff82169050919050565b600062000199826200016c565b9050919050565b620001ab816200018c565b8114620001b757600080fd5b50565b600081519050620001cb81620001a0565b92915050565b600060208284031215620001ea57620001e962000167565b5b6000620001fa84828501620001ba565b91505092915050565b600081519050919050565b7f4e487b7100000000000000000000000000000000000000000000000000000000600052604160045260246000fd5b7f4e487b7100000000000000000000000000000000000000000000000000000000600052602260045260246000fd5b600060028204905060018216806200028557607f821691505b6020821081036200029b576200029a6200023d565b5b50919050565b60008190508160005260206000209050919050565b60006020601f8301049050919050565b600082821b905092915050565b600060088302620003057fffffffffffffffffffffffffffffffffffffffffffffffffffffffffffffffff82620002c6565b620003118683620002c6565b95508019841693508086168417925050509392505050565b6000819050919050565b6000819050919050565b60006200035e62000358620003528462000329565b62000333565b62000329565b9050919050565b6000819050919050565b6200037a836200033d565b62000392620003898262000365565b848454620002d3565b825550505050565b600090565b620003a96200039a565b620003b68184846200036f565b505050565b5b81811015620003de57620003d26000826200039f565b600181019050620003bc565b5050565b601f8211156200042d57620003f781620002a1565b6200040284620002b6565b8101602085101562000412578190505b6200042a6200042185620002b6565b830182620003bb565b50505b505050565b600082821c905092915050565b6000620004526000198460080262000432565b1980831691505092915050565b60006200046d83836200043f565b9150826002028217905092915050565b620004888262000203565b67ffffffffffffffff811115620004a457620004a36200020e565b5b620004b082546200026c565b620004bd828285620003e2565b600060209050601f831160018114620004f55760008415620004e0578287015190505b620004ec85826200045f565b8655506200055c565b601f1984166200050586620002a1565b60005b828110156200052f5784890151825560018201915060208501945060208101905062000508565b868310156200054f57848901516200054b601f8916826200043f565b8355505b6001600288020188555050505b505050505050565b7f4e487b7100000000000000000000000000000000000000000000000000000000600052601160045260246000fd5b60008160011c9050919050565b6000808291508390505b6001851115620005f257808604811115620005ca57620005c962000564565b5b6001851615620005da5780820291505b8081029050620005ea8562000593565b9450620005aa565b94509492505050565b6000826200060d5760019050620006e0565b816200061d5760009050620006e0565b8160018114620006365760028114620006415762000677565b6001915050620006e0565b60ff84111562000656576200065562000564565b5b8360020a91508482111562000670576200066f62000564565b5b50620006e0565b5060208310610133831016604e8410600b8410161715620006b15782820a905083811115620006ab57620006aa62000564565b5b620006e0565b620006c08484846001620005a0565b92509050818404811115620006da57620006d962000564565b5b81810290505b9392505050565b600060ff82169050919050565b6000620007018262000329565b91506200070e83620006e7565b92506200073d7fffffffffffffffffffffffffffffffffffffffffffffffffffffffffffffffff8484620005fb565b905092915050565b6000620007528262000329565b91506200075f8362000329565b92508282026200076f8162000329565b9150828204841483151762000789576200078862000564565b5b5092915050565b60805160a05160c051612059620007ea600039600081816108be015261093d0152600081816109ae01528181610a2901528181610ab001528181610ae80152610b620152600081816104f9015261068501526120596000f3fe6080604052600436106100e85760003560e01c806370a082311161008a578063a6f2ae3a11610059578063a6f2ae3a1461031c578063a9059cbb14610326578063ad5d4bc514610363578063dd62ed3e1461038c576100e8565b806370a082311461024e5780638cdaef4f1461028b57806395d89b41146102b4578063a457c2d7146102df576100e8565b806323b872dd116100c657806323b872dd14610180578063313ce567146101bd57806339509351146101e85780633fed03fe14610225576100e8565b806306fdde03146100ed578063095ea7b31461011857806318160ddd14610155575b600080fd5b3480156100f957600080fd5b506101026103c9565b60405161010f919061139e565b60405180910390f35b34801561012457600080fd5b5061013f600480360381019061013a9190611459565b61045b565b60405161014c91906114b4565b60405180910390f35b34801561016157600080fd5b5061016a61047e565b60405161017791906114de565b60405180910390f35b34801561018c57600080fd5b506101a760048036038101906101a291906114f9565b610488565b6040516101b491906114b4565b60405180910390f35b3480156101c957600080fd5b506101d26104b7565b6040516101df9190611568565b60405180910390f35b3480156101f457600080fd5b5061020f600480360381019061020a9190611459565b6104c0565b60405161021c91906114b4565b60405180910390f35b34801561023157600080fd5b5061024c600480360381019061024791906115c1565b6104f7565b005b34801561025a57600080fd5b50610275600480360381019061027091906115ee565b61063b565b60405161028291906114de565b60405180910390f35b34801561029757600080fd5b506102b260048036038101906102ad91906115ee565b610683565b005b3480156102c057600080fd5b506102c9610727565b6040516102d6919061139e565b60405180910390f35b3480156102eb57600080fd5b5061030660048036038101906103019190611459565b6107b9565b60405161031391906114b4565b60405180910390f35b610324610830565b005b34801561033257600080fd5b5061034d60048036038101906103489190611459565b610989565b60405161035a91906114b4565b60405180910390f35b34801561036f57600080fd5b5061038a6004803603810190610385919061161b565b6109ac565b005b34801561039857600080fd5b506103b360048036038101906103ae9190611648565b610c54565b6040516103c091906114de565b60405180910390f35b6060600380546103d8906116b7565b80601f0160208091040260200160405190810160405280929190818152602001828054610404906116b7565b80156104515780601f1061042657610100808354040283529160200191610451565b820191906000526020600020905b81548152906001019060200180831161043457829003601f168201915b5050505050905090565b600080610466610cdb565b9050610473818585610ce3565b600191505092915050565b6000600254905090565b600080610493610cdb565b90506104a0858285610eac565b6104ab858585610f38565b60019150509392505050565b60006012905090565b6000806104cb610cdb565b90506104ec8185856104dd8589610c54565b6104e79190611717565b610ce3565b600191505092915050565b7f000000000000000000000000000000000000000000000000000000000000000073ffffffffffffffffffffffffffffffffffffffff163373ffffffffffffffffffffffffffffffffffffffff1614610585576040517f08c379a000000000000000000000000000000000000000000000000000000000815260040161057c906117bd565b60405180910390fd5b600047905060008273ffffffffffffffffffffffffffffffffffffffff16826040516105b09061180e565b60006040518083038185875af1925050503d80600081146105ed576040519150601f19603f3d011682016040523d82523d6000602084013e6105f2565b606091505b5050905080610636576040517f08c379a000000000000000000000000000000000000000000000000000000000815260040161062d9061186f565b60405180910390fd5b505050565b60008060008373ffffffffffffffffffffffffffffffffffffffff1673ffffffffffffffffffffffffffffffffffffffff168152602001908152602001600020549050919050565b7f000000000000000000000000000000000000000000000000000000000000000073ffffffffffffffffffffffffffffffffffffffff163373ffffffffffffffffffffffffffffffffffffffff1614610711576040517f08c379a0000000000000000000000000000000000000000000000000000000008152600401610708906117bd565b60405180910390fd5b610724308261071f3061063b565b610f38565b50565b606060048054610736906116b7565b80601f0160208091040260200160405190810160405280929190818152602001828054610762906116b7565b80156107af5780601f10610784576101008083540402835291602001916107af565b820191906000526020600020905b81548152906001019060200180831161079257829003601f168201915b5050505050905090565b6000806107c4610cdb565b905060006107d28286610c54565b905083811015610817576040517f08c379a000000000000000000000000000000000000000000000000000000000815260040161080e90611901565b60405180910390fd5b6108248286868403610ce3565b60019250505092915050565b60006103e8346108409190611921565b9050600560009054906101000a900460ff16156108bc5760006108623061063b565b905081811061087b57610876303384610f38565b6108b6565b6040517f08c379a00000000000000000000000000000000000000000000000000000000081526004016108ad906119d5565b60405180910390fd5b50610986565b7f00000000000000000000000000000000000000000000000000000000000000006108e561047e565b826108f09190611717565b1115610931576040517f08c379a000000000000000000000000000000000000000000000000000000000815260040161092890611a41565b60405180910390fd5b61093b33826111ae565b7f000000000000000000000000000000000000000000000000000000000000000061096461047e565b10610985576001600560006101000a81548160ff0219169083151502179055505b5b50565b600080610994610cdb565b90506109a1818585610f38565b600191505092915050565b7f0000000000000000000000000000000000000000000000000000000000000000816109d89190611921565b6109e13361063b565b1015610a22576040517f08c379a0000000000000000000000000000000000000000000000000000000008152600401610a1990611aad565b60405180910390fd5b60026103e87f000000000000000000000000000000000000000000000000000000000000000083610a539190611921565b610a5d9190611afc565b610a679190611afc565b471015610aa9576040517f08c379a0000000000000000000000000000000000000000000000000000000008152600401610aa090611b79565b60405180910390fd5b610adf33307f000000000000000000000000000000000000000000000000000000000000000084610ada9190611921565b610ce3565b6000610b1733307f000000000000000000000000000000000000000000000000000000000000000085610b129190611921565b610488565b905080610b59576040517f08c379a0000000000000000000000000000000000000000000000000000000008152600401610b5090611be5565b60405180910390fd5b600060026103e87f000000000000000000000000000000000000000000000000000000000000000085610b8c9190611921565b610b969190611afc565b610ba09190611afc565b905060003373ffffffffffffffffffffffffffffffffffffffff1682604051610bc89061180e565b60006040518083038185875af1925050503d8060008114610c05576040519150601f19603f3d011682016040523d82523d6000602084013e610c0a565b606091505b5050905080610c4e576040517f08c379a0000000000000000000000000000000000000000000000000000000008152600401610c4590611c51565b60405180910390fd5b50505050565b6000600160008473ffffffffffffffffffffffffffffffffffffffff1673ffffffffffffffffffffffffffffffffffffffff16815260200190815260200160002060008373ffffffffffffffffffffffffffffffffffffffff1673ffffffffffffffffffffffffffffffffffffffff16815260200190815260200160002054905092915050565b600033905090565b600073ffffffffffffffffffffffffffffffffffffffff168373ffffffffffffffffffffffffffffffffffffffff1603610d52576040517f08c379a0000000000000000000000000000000000000000000000000000000008152600401610d4990611ce3565b60405180910390fd5b600073ffffffffffffffffffffffffffffffffffffffff168273ffffffffffffffffffffffffffffffffffffffff1603610dc1576040517f08c379a0000000000000000000000000000000000000000000000000000000008152600401610db890611d75565b60405180910390fd5b80600160008573ffffffffffffffffffffffffffffffffffffffff1673ffffffffffffffffffffffffffffffffffffffff16815260200190815260200160002060008473ffffffffffffffffffffffffffffffffffffffff1673ffffffffffffffffffffffffffffffffffffffff168152602001908152602001600020819055508173ffffffffffffffffffffffffffffffffffffffff168373ffffffffffffffffffffffffffffffffffffffff167f8c5be1e5ebec7d5bd14f71427d1e84f3dd0314c0f7b2291e5b200ac8c7c3b92583604051610e9f91906114de565b60405180910390a3505050565b6000610eb88484610c54565b90507fffffffffffffffffffffffffffffffffffffffffffffffffffffffffffffffff8114610f325781811015610f24576040517f08c379a0000000000000000000000000000000000000000000000000000000008152600401610f1b90611de1565b60405180910390fd5b610f318484848403610ce3565b5b50505050565b600073ffffffffffffffffffffffffffffffffffffffff168373ffffffffffffffffffffffffffffffffffffffff1603610fa7576040517f08c379a0000000000000000000000000000000000000000000000000000000008152600401610f9e90611e73565b60405180910390fd5b600073ffffffffffffffffffffffffffffffffffffffff168273ffffffffffffffffffffffffffffffffffffffff1603611016576040517f08c379a000000000000000000000000000000000000000000000000000000000815260040161100d90611f05565b60405180910390fd5b611021838383611304565b60008060008573ffffffffffffffffffffffffffffffffffffffff1673ffffffffffffffffffffffffffffffffffffffff168152602001908152602001600020549050818110156110a7576040517f08c379a000000000000000000000000000000000000000000000000000000000815260040161109e90611f97565b60405180910390fd5b8181036000808673ffffffffffffffffffffffffffffffffffffffff1673ffffffffffffffffffffffffffffffffffffffff16815260200190815260200160002081905550816000808573ffffffffffffffffffffffffffffffffffffffff1673ffffffffffffffffffffffffffffffffffffffff168152602001908152602001600020600082825401925050819055508273ffffffffffffffffffffffffffffffffffffffff168473ffffffffffffffffffffffffffffffffffffffff167fddf252ad1be2c89b69c2b068fc378daa952ba7f163c4a11628f55a4df523b3ef8460405161119591906114de565b60405180910390a36111a8848484611309565b50505050565b600073ffffffffffffffffffffffffffffffffffffffff168273ffffffffffffffffffffffffffffffffffffffff160361121d576040517f08c379a000000000000000000000000000000000000000000000000000000000815260040161121490612003565b60405180910390fd5b61122960008383611304565b806002600082825461123b9190611717565b92505081905550806000808473ffffffffffffffffffffffffffffffffffffffff1673ffffffffffffffffffffffffffffffffffffffff168152602001908152602001600020600082825401925050819055508173ffffffffffffffffffffffffffffffffffffffff16600073ffffffffffffffffffffffffffffffffffffffff167fddf252ad1be2c89b69c2b068fc378daa952ba7f163c4a11628f55a4df523b3ef836040516112ec91906114de565b60405180910390a361130060008383611309565b5050565b505050565b505050565b600081519050919050565b600082825260208201905092915050565b60005b8381101561134857808201518184015260208101905061132d565b60008484015250505050565b6000601f19601f8301169050919050565b60006113708261130e565b61137a8185611319565b935061138a81856020860161132a565b61139381611354565b840191505092915050565b600060208201905081810360008301526113b88184611365565b905092915050565b600080fd5b600073ffffffffffffffffffffffffffffffffffffffff82169050919050565b60006113f0826113c5565b9050919050565b611400816113e5565b811461140b57600080fd5b50565b60008135905061141d816113f7565b92915050565b6000819050919050565b61143681611423565b811461144157600080fd5b50565b6000813590506114538161142d565b92915050565b600080604083850312156114705761146f6113c0565b5b600061147e8582860161140e565b925050602061148f85828601611444565b9150509250929050565b60008115159050919050565b6114ae81611499565b82525050565b60006020820190506114c960008301846114a5565b92915050565b6114d881611423565b82525050565b60006020820190506114f360008301846114cf565b92915050565b600080600060608486031215611512576115116113c0565b5b60006115208682870161140e565b93505060206115318682870161140e565b925050604061154286828701611444565b9150509250925092565b600060ff82169050919050565b6115628161154c565b82525050565b600060208201905061157d6000830184611559565b92915050565b600061158e826113c5565b9050919050565b61159e81611583565b81146115a957600080fd5b50565b6000813590506115bb81611595565b92915050565b6000602082840312156115d7576115d66113c0565b5b60006115e5848285016115ac565b91505092915050565b600060208284031215611604576116036113c0565b5b60006116128482850161140e565b91505092915050565b600060208284031215611631576116306113c0565b5b600061163f84828501611444565b91505092915050565b6000806040838503121561165f5761165e6113c0565b5b600061166d8582860161140e565b925050602061167e8582860161140e565b9150509250929050565b7f4e487b7100000000000000000000000000000000000000000000000000000000600052602260045260246000fd5b600060028204905060018216806116cf57607f821691505b6020821081036116e2576116e1611688565b5b50919050565b7f4e487b7100000000000000000000000000000000000000000000000000000000600052601160045260246000fd5b600061172282611423565b915061172d83611423565b9250828201905080821115611745576117446116e8565b5b92915050565b7f4f6e6c79207370656369616c20616464726573732063616e206d6f646966792060008201527f6461746100000000000000000000000000000000000000000000000000000000602082015250565b60006117a7602483611319565b91506117b28261174b565b604082019050919050565b600060208201905081810360008301526117d68161179a565b9050919050565b600081905092915050565b50565b60006117f86000836117dd565b9150611803826117e8565b600082019050919050565b6000611819826117eb565b9150819050919050565b7f4661696c656420746f2077697468647261770000000000000000000000000000600082015250565b6000611859601283611319565b915061186482611823565b602082019050919050565b600060208201905081810360008301526118888161184c565b9050919050565b7f45524332303a2064656372656173656420616c6c6f77616e63652062656c6f7760008201527f207a65726f000000000000000000000000000000000000000000000000000000602082015250565b60006118eb602583611319565b91506118f68261188f565b604082019050919050565b6000602082019050818103600083015261191a816118de565b9050919050565b600061192c82611423565b915061193783611423565b925082820261194581611423565b9150828204841483151761195c5761195b6116e8565b5b5092915050565b7f436f6e747261637420686173206c65737320746f6b656e7320617661696c616260008201527f6c65207468616e20726571756972656400000000000000000000000000000000602082015250565b60006119bf603083611319565b91506119ca82611963565b604082019050919050565b600060208201905081810360008301526119ee816119b2565b9050919050565b7f537570706c792077696c6c20657863656564206d6178696d756d000000000000600082015250565b6000611a2b601a83611319565b9150611a36826119f5565b602082019050919050565b60006020820190508181036000830152611a5a81611a1e565b9050919050565b7f4e6f7420656e6f75676820746f6b656e7320696e2062616c616e636500000000600082015250565b6000611a97601c83611319565b9150611aa282611a61565b602082019050919050565b60006020820190508181036000830152611ac681611a8a565b9050919050565b7f4e487b7100000000000000000000000000000000000000000000000000000000600052601260045260246000fd5b6000611b0782611423565b9150611b1283611423565b925082611b2257611b21611acd565b5b828204905092915050565b7f4e6f7420656e6f75676820657468657220696e20636f6e747261637400000000600082015250565b6000611b63601c83611319565b9150611b6e82611b2d565b602082019050919050565b60006020820190508181036000830152611b9281611b56565b9050919050565b7f436f756c64206e6f74207472616e736665722c20726576657274696e67000000600082015250565b6000611bcf601d83611319565b9150611bda82611b99565b602082019050919050565b60006020820190508181036000830152611bfe81611bc2565b9050919050565b7f4661696c656420746f2073656e64204574686572000000000000000000000000600082015250565b6000611c3b601483611319565b9150611c4682611c05565b602082019050919050565b60006020820190508181036000830152611c6a81611c2e565b9050919050565b7f45524332303a20617070726f76652066726f6d20746865207a65726f2061646460008201527f7265737300000000000000000000000000000000000000000000000000000000602082015250565b6000611ccd602483611319565b9150611cd882611c71565b604082019050919050565b60006020820190508181036000830152611cfc81611cc0565b9050919050565b7f45524332303a20617070726f766520746f20746865207a65726f20616464726560008201527f7373000000000000000000000000000000000000000000000000000000000000602082015250565b6000611d5f602283611319565b9150611d6a82611d03565b604082019050919050565b60006020820190508181036000830152611d8e81611d52565b9050919050565b7f45524332303a20696e73756666696369656e7420616c6c6f77616e6365000000600082015250565b6000611dcb601d83611319565b9150611dd682611d95565b602082019050919050565b60006020820190508181036000830152611dfa81611dbe565b9050919050565b7f45524332303a207472616e736665722066726f6d20746865207a65726f20616460008201527f6472657373000000000000000000000000000000000000000000000000000000602082015250565b6000611e5d602583611319565b9150611e6882611e01565b604082019050919050565b60006020820190508181036000830152611e8c81611e50565b9050919050565b7f45524332303a207472616e7366657220746f20746865207a65726f206164647260008201527f6573730000000000000000000000000000000000000000000000000000000000602082015250565b6000611eef602383611319565b9150611efa82611e93565b604082019050919050565b60006020820190508181036000830152611f1e81611ee2565b9050919050565b7f45524332303a207472616e7366657220616d6f756e742065786365656473206260008201527f616c616e63650000000000000000000000000000000000000000000000000000602082015250565b6000611f81602683611319565b9150611f8c82611f25565b604082019050919050565b60006020820190508181036000830152611fb081611f74565b9050919050565b7f45524332303a206d696e7420746f20746865207a65726f206164647265737300600082015250565b6000611fed601f83611319565b9150611ff882611fb7565b602082019050919050565b6000602082019050818103600083015261201c81611fe0565b905091905056fea2646970667358221220762c7f821b8cbeb212b344f97c895c32ec51fa86e5298296adac29585e627a6d64736f6c63430008110033",
  "linkReferences": {},
  "deployedLinkReferences": {}
}