{
  "_format": "hh-sol-artifact-1",
  "contractName": "TokenSale",
  "sourceName": "contracts/TokenSale.sol",
  "abi": [
    {
      "inputs": [
        {
          "internalType": "address",
          "name": "specialAddress",
          "type": "address"
        }
      ],
      "stateMutability": "nonpayable",
      "type": "constructor"
    },
    {
      "anonymous": false,
      "inputs": [
        {
          "indexed": true,
          "internalType": "address",
          "name": "owner",
          "type": "address"
        },
        {
          "indexed": true,
          "internalType": "address",
          "name": "spender",
          "type": "address"
        },
        {
          "indexed": false,
          "internalType": "uint256",
          "name": "value",
          "type": "uint256"
        }
      ],
      "name": "Approval",
      "type": "event"
    },
    {
      "anonymous": false,
      "inputs": [
        {
          "indexed": true,
          "internalType": "address",
          "name": "from",
          "type": "address"
        },
        {
          "indexed": true,
          "internalType": "address",
          "name": "to",
          "type": "address"
        },
        {
          "indexed": false,
          "internalType": "uint256",
          "name": "value",
          "type": "uint256"
        }
      ],
      "name": "Transfer",
      "type": "event"
    },
    {
      "inputs": [
        {
          "internalType": "address",
          "name": "owner",
          "type": "address"
        },
        {
          "internalType": "address",
          "name": "spender",
          "type": "address"
        }
      ],
      "name": "allowance",
      "outputs": [
        {
          "internalType": "uint256",
          "name": "",
          "type": "uint256"
        }
      ],
      "stateMutability": "view",
      "type": "function"
    },
    {
      "inputs": [
        {
          "internalType": "address",
          "name": "spender",
          "type": "address"
        },
        {
          "internalType": "uint256",
          "name": "amount",
          "type": "uint256"
        }
      ],
      "name": "approve",
      "outputs": [
        {
          "internalType": "bool",
          "name": "",
          "type": "bool"
        }
      ],
      "stateMutability": "nonpayable",
      "type": "function"
    },
    {
      "inputs": [
        {
          "internalType": "address",
          "name": "account",
          "type": "address"
        }
      ],
      "name": "balanceOf",
      "outputs": [
        {
          "internalType": "uint256",
          "name": "",
          "type": "uint256"
        }
      ],
      "stateMutability": "view",
      "type": "function"
    },
    {
      "inputs": [
        {
          "internalType": "uint256",
          "name": "amount",
          "type": "uint256"
        }
      ],
      "name": "buy",
      "outputs": [],
      "stateMutability": "payable",
      "type": "function"
    },
    {
      "inputs": [],
      "name": "decimals",
      "outputs": [
        {
          "internalType": "uint8",
          "name": "",
          "type": "uint8"
        }
      ],
      "stateMutability": "view",
      "type": "function"
    },
    {
      "inputs": [
        {
          "internalType": "address",
          "name": "spender",
          "type": "address"
        },
        {
          "internalType": "uint256",
          "name": "subtractedValue",
          "type": "uint256"
        }
      ],
      "name": "decreaseAllowance",
      "outputs": [
        {
          "internalType": "bool",
          "name": "",
          "type": "bool"
        }
      ],
      "stateMutability": "nonpayable",
      "type": "function"
    },
    {
      "inputs": [
        {
          "internalType": "address",
          "name": "spender",
          "type": "address"
        },
        {
          "internalType": "uint256",
          "name": "addedValue",
          "type": "uint256"
        }
      ],
      "name": "increaseAllowance",
      "outputs": [
        {
          "internalType": "bool",
          "name": "",
          "type": "bool"
        }
      ],
      "stateMutability": "nonpayable",
      "type": "function"
    },
    {
      "inputs": [],
      "name": "name",
      "outputs": [
        {
          "internalType": "string",
          "name": "",
          "type": "string"
        }
      ],
      "stateMutability": "view",
      "type": "function"
    },
    {
      "inputs": [],
      "name": "symbol",
      "outputs": [
        {
          "internalType": "string",
          "name": "",
          "type": "string"
        }
      ],
      "stateMutability": "view",
      "type": "function"
    },
    {
      "inputs": [],
      "name": "totalSupply",
      "outputs": [
        {
          "internalType": "uint256",
          "name": "",
          "type": "uint256"
        }
      ],
      "stateMutability": "view",
      "type": "function"
    },
    {
      "inputs": [
        {
          "internalType": "address",
          "name": "to",
          "type": "address"
        },
        {
          "internalType": "uint256",
          "name": "amount",
          "type": "uint256"
        }
      ],
      "name": "transfer",
      "outputs": [
        {
          "internalType": "bool",
          "name": "",
          "type": "bool"
        }
      ],
      "stateMutability": "nonpayable",
      "type": "function"
    },
    {
      "inputs": [
        {
          "internalType": "address",
          "name": "from",
          "type": "address"
        },
        {
          "internalType": "address",
          "name": "to",
          "type": "address"
        },
        {
          "internalType": "uint256",
          "name": "amount",
          "type": "uint256"
        }
      ],
      "name": "transferFrom",
      "outputs": [
        {
          "internalType": "bool",
          "name": "",
          "type": "bool"
        }
      ],
      "stateMutability": "nonpayable",
      "type": "function"
    },
    {
      "inputs": [
        {
          "internalType": "address payable",
          "name": "to",
          "type": "address"
        }
      ],
      "name": "withdraw",
      "outputs": [],
      "stateMutability": "nonpayable",
      "type": "function"
    }
  ],
  "bytecode": "0x6080604052620000146200016360201b60201c565b600a62000022919062000306565b600655600654620f424062000038919062000357565b6007556000600860006101000a81548160ff0219169083151502179055503480156200006357600080fd5b50604051620021b9380380620021b983398181016040528101906200008991906200040c565b6040518060400160405280600b81526020017f4d6574616e61546f6b656e0000000000000000000000000000000000000000008152506040518060400160405280600381526020017f4d544b00000000000000000000000000000000000000000000000000000000008152508160039081620001069190620006ae565b508060049081620001189190620006ae565b50505080600560006101000a81548173ffffffffffffffffffffffffffffffffffffffff021916908373ffffffffffffffffffffffffffffffffffffffff1602179055505062000795565b60006012905090565b7f4e487b7100000000000000000000000000000000000000000000000000000000600052601160045260246000fd5b60008160011c9050919050565b6000808291508390505b6001851115620001fa57808604811115620001d257620001d16200016c565b5b6001851615620001e25780820291505b8081029050620001f2856200019b565b9450620001b2565b94509492505050565b600082620002155760019050620002e8565b81620002255760009050620002e8565b81600181146200023e576002811462000249576200027f565b6001915050620002e8565b60ff8411156200025e576200025d6200016c565b5b8360020a9150848211156200027857620002776200016c565b5b50620002e8565b5060208310610133831016604e8410600b8410161715620002b95782820a905083811115620002b357620002b26200016c565b5b620002e8565b620002c88484846001620001a8565b92509050818404811115620002e257620002e16200016c565b5b81810290505b9392505050565b6000819050919050565b600060ff82169050919050565b60006200031382620002ef565b91506200032083620002f9565b92506200034f7fffffffffffffffffffffffffffffffffffffffffffffffffffffffffffffffff848462000203565b905092915050565b60006200036482620002ef565b91506200037183620002ef565b92508282026200038181620002ef565b915082820484148315176200039b576200039a6200016c565b5b5092915050565b600080fd5b600073ffffffffffffffffffffffffffffffffffffffff82169050919050565b6000620003d482620003a7565b9050919050565b620003e681620003c7565b8114620003f257600080fd5b50565b6000815190506200040681620003db565b92915050565b600060208284031215620004255762000424620003a2565b5b60006200043584828501620003f5565b91505092915050565b600081519050919050565b7f4e487b7100000000000000000000000000000000000000000000000000000000600052604160045260246000fd5b7f4e487b7100000000000000000000000000000000000000000000000000000000600052602260045260246000fd5b60006002820490506001821680620004c057607f821691505b602082108103620004d657620004d562000478565b5b50919050565b60008190508160005260206000209050919050565b60006020601f8301049050919050565b600082821b905092915050565b600060088302620005407fffffffffffffffffffffffffffffffffffffffffffffffffffffffffffffffff8262000501565b6200054c868362000501565b95508019841693508086168417925050509392505050565b6000819050919050565b60006200058f620005896200058384620002ef565b62000564565b620002ef565b9050919050565b6000819050919050565b620005ab836200056e565b620005c3620005ba8262000596565b8484546200050e565b825550505050565b600090565b620005da620005cb565b620005e7818484620005a0565b505050565b5b818110156200060f5762000603600082620005d0565b600181019050620005ed565b5050565b601f8211156200065e576200062881620004dc565b6200063384620004f1565b8101602085101562000643578190505b6200065b6200065285620004f1565b830182620005ec565b50505b505050565b600082821c905092915050565b6000620006836000198460080262000663565b1980831691505092915050565b60006200069e838362000670565b9150826002028217905092915050565b620006b9826200043e565b67ffffffffffffffff811115620006d557620006d462000449565b5b620006e18254620004a7565b620006ee82828562000613565b600060209050601f83116001811462000726576000841562000711578287015190505b6200071d858262000690565b8655506200078d565b601f1984166200073686620004dc565b60005b82811015620007605784890151825560018201915060208501945060208101905062000739565b868310156200078057848901516200077c601f89168262000670565b8355505b6001600288020188555050505b505050505050565b611a1480620007a56000396000f3fe6080604052600436106100c25760003560e01c806351cff8d91161007f578063a457c2d711610059578063a457c2d714610290578063a9059cbb146102cd578063d96a094a1461030a578063dd62ed3e14610326576100c2565b806351cff8d9146101ff57806370a082311461022857806395d89b4114610265576100c2565b806306fdde03146100c7578063095ea7b3146100f257806318160ddd1461012f57806323b872dd1461015a578063313ce5671461019757806339509351146101c2575b600080fd5b3480156100d357600080fd5b506100dc610363565b6040516100e99190610f8f565b60405180910390f35b3480156100fe57600080fd5b506101196004803603810190610114919061104a565b6103f5565b60405161012691906110a5565b60405180910390f35b34801561013b57600080fd5b50610144610418565b60405161015191906110cf565b60405180910390f35b34801561016657600080fd5b50610181600480360381019061017c91906110ea565b610422565b60405161018e91906110a5565b60405180910390f35b3480156101a357600080fd5b506101ac610451565b6040516101b99190611159565b60405180910390f35b3480156101ce57600080fd5b506101e960048036038101906101e4919061104a565b61045a565b6040516101f691906110a5565b60405180910390f35b34801561020b57600080fd5b50610226600480360381019061022191906111b2565b610491565b005b34801561023457600080fd5b5061024f600480360381019061024a91906111df565b6105d7565b60405161025c91906110cf565b60405180910390f35b34801561027157600080fd5b5061027a61061f565b6040516102879190610f8f565b60405180910390f35b34801561029c57600080fd5b506102b760048036038101906102b2919061104a565b6106b1565b6040516102c491906110a5565b60405180910390f35b3480156102d957600080fd5b506102f460048036038101906102ef919061104a565b610728565b60405161030191906110a5565b60405180910390f35b610324600480360381019061031f919061120c565b61074b565b005b34801561033257600080fd5b5061034d60048036038101906103489190611239565b610845565b60405161035a91906110cf565b60405180910390f35b606060038054610372906112a8565b80601f016020809104026020016040519081016040528092919081815260200182805461039e906112a8565b80156103eb5780601f106103c0576101008083540402835291602001916103eb565b820191906000526020600020905b8154815290600101906020018083116103ce57829003601f168201915b5050505050905090565b6000806104006108cc565b905061040d8185856108d4565b600191505092915050565b6000600254905090565b60008061042d6108cc565b905061043a858285610a9d565b610445858585610b29565b60019150509392505050565b60006012905090565b6000806104656108cc565b90506104868185856104778589610845565b6104819190611308565b6108d4565b600191505092915050565b600560009054906101000a900473ffffffffffffffffffffffffffffffffffffffff1673ffffffffffffffffffffffffffffffffffffffff163373ffffffffffffffffffffffffffffffffffffffff1614610521576040517f08c379a0000000000000000000000000000000000000000000000000000000008152600401610518906113ae565b60405180910390fd5b600047905060008273ffffffffffffffffffffffffffffffffffffffff168260405161054c906113ff565b60006040518083038185875af1925050503d8060008114610589576040519150601f19603f3d011682016040523d82523d6000602084013e61058e565b606091505b50509050806105d2576040517f08c379a00000000000000000000000000000000000000000000000000000000081526004016105c990611460565b60405180910390fd5b505050565b60008060008373ffffffffffffffffffffffffffffffffffffffff1673ffffffffffffffffffffffffffffffffffffffff168152602001908152602001600020549050919050565b60606004805461062e906112a8565b80601f016020809104026020016040519081016040528092919081815260200182805461065a906112a8565b80156106a75780601f1061067c576101008083540402835291602001916106a7565b820191906000526020600020905b81548152906001019060200180831161068a57829003601f168201915b5050505050905090565b6000806106bc6108cc565b905060006106ca8286610845565b90508381101561070f576040517f08c379a0000000000000000000000000000000000000000000000000000000008152600401610706906114f2565b60405180910390fd5b61071c82868684036108d4565b60019250505092915050565b6000806107336108cc565b9050610740818585610b29565b600191505092915050565b600860009054906101000a900460ff161561079b576040517f08c379a00000000000000000000000000000000000000000000000000000000081526004016107929061155e565b60405180910390fd5b6007546107a6610418565b600654836107b4919061157e565b6107be9190611308565b11156107ff576040517f08c379a00000000000000000000000000000000000000000000000000000000081526004016107f69061160c565b60405180910390fd5b6108163360065483610811919061157e565b610d9f565b600754610821610418565b10610842576001600860006101000a81548160ff0219169083151502179055505b50565b6000600160008473ffffffffffffffffffffffffffffffffffffffff1673ffffffffffffffffffffffffffffffffffffffff16815260200190815260200160002060008373ffffffffffffffffffffffffffffffffffffffff1673ffffffffffffffffffffffffffffffffffffffff16815260200190815260200160002054905092915050565b600033905090565b600073ffffffffffffffffffffffffffffffffffffffff168373ffffffffffffffffffffffffffffffffffffffff1603610943576040517f08c379a000000000000000000000000000000000000000000000000000000000815260040161093a9061169e565b60405180910390fd5b600073ffffffffffffffffffffffffffffffffffffffff168273ffffffffffffffffffffffffffffffffffffffff16036109b2576040517f08c379a00000000000000000000000000000000000000000000000000000000081526004016109a990611730565b60405180910390fd5b80600160008573ffffffffffffffffffffffffffffffffffffffff1673ffffffffffffffffffffffffffffffffffffffff16815260200190815260200160002060008473ffffffffffffffffffffffffffffffffffffffff1673ffffffffffffffffffffffffffffffffffffffff168152602001908152602001600020819055508173ffffffffffffffffffffffffffffffffffffffff168373ffffffffffffffffffffffffffffffffffffffff167f8c5be1e5ebec7d5bd14f71427d1e84f3dd0314c0f7b2291e5b200ac8c7c3b92583604051610a9091906110cf565b60405180910390a3505050565b6000610aa98484610845565b90507fffffffffffffffffffffffffffffffffffffffffffffffffffffffffffffffff8114610b235781811015610b15576040517f08c379a0000000000000000000000000000000000000000000000000000000008152600401610b0c9061179c565b60405180910390fd5b610b2284848484036108d4565b5b50505050565b600073ffffffffffffffffffffffffffffffffffffffff168373ffffffffffffffffffffffffffffffffffffffff1603610b98576040517f08c379a0000000000000000000000000000000000000000000000000000000008152600401610b8f9061182e565b60405180910390fd5b600073ffffffffffffffffffffffffffffffffffffffff168273ffffffffffffffffffffffffffffffffffffffff1603610c07576040517f08c379a0000000000000000000000000000000000000000000000000000000008152600401610bfe906118c0565b60405180910390fd5b610c12838383610ef5565b60008060008573ffffffffffffffffffffffffffffffffffffffff1673ffffffffffffffffffffffffffffffffffffffff16815260200190815260200160002054905081811015610c98576040517f08c379a0000000000000000000000000000000000000000000000000000000008152600401610c8f90611952565b60405180910390fd5b8181036000808673ffffffffffffffffffffffffffffffffffffffff1673ffffffffffffffffffffffffffffffffffffffff16815260200190815260200160002081905550816000808573ffffffffffffffffffffffffffffffffffffffff1673ffffffffffffffffffffffffffffffffffffffff168152602001908152602001600020600082825401925050819055508273ffffffffffffffffffffffffffffffffffffffff168473ffffffffffffffffffffffffffffffffffffffff167fddf252ad1be2c89b69c2b068fc378daa952ba7f163c4a11628f55a4df523b3ef84604051610d8691906110cf565b60405180910390a3610d99848484610efa565b50505050565b600073ffffffffffffffffffffffffffffffffffffffff168273ffffffffffffffffffffffffffffffffffffffff1603610e0e576040517f08c379a0000000000000000000000000000000000000000000000000000000008152600401610e05906119be565b60405180910390fd5b610e1a60008383610ef5565b8060026000828254610e2c9190611308565b92505081905550806000808473ffffffffffffffffffffffffffffffffffffffff1673ffffffffffffffffffffffffffffffffffffffff168152602001908152602001600020600082825401925050819055508173ffffffffffffffffffffffffffffffffffffffff16600073ffffffffffffffffffffffffffffffffffffffff167fddf252ad1be2c89b69c2b068fc378daa952ba7f163c4a11628f55a4df523b3ef83604051610edd91906110cf565b60405180910390a3610ef160008383610efa565b5050565b505050565b505050565b600081519050919050565b600082825260208201905092915050565b60005b83811015610f39578082015181840152602081019050610f1e565b60008484015250505050565b6000601f19601f8301169050919050565b6000610f6182610eff565b610f6b8185610f0a565b9350610f7b818560208601610f1b565b610f8481610f45565b840191505092915050565b60006020820190508181036000830152610fa98184610f56565b905092915050565b600080fd5b600073ffffffffffffffffffffffffffffffffffffffff82169050919050565b6000610fe182610fb6565b9050919050565b610ff181610fd6565b8114610ffc57600080fd5b50565b60008135905061100e81610fe8565b92915050565b6000819050919050565b61102781611014565b811461103257600080fd5b50565b6000813590506110448161101e565b92915050565b6000806040838503121561106157611060610fb1565b5b600061106f85828601610fff565b925050602061108085828601611035565b9150509250929050565b60008115159050919050565b61109f8161108a565b82525050565b60006020820190506110ba6000830184611096565b92915050565b6110c981611014565b82525050565b60006020820190506110e460008301846110c0565b92915050565b60008060006060848603121561110357611102610fb1565b5b600061111186828701610fff565b935050602061112286828701610fff565b925050604061113386828701611035565b9150509250925092565b600060ff82169050919050565b6111538161113d565b82525050565b600060208201905061116e600083018461114a565b92915050565b600061117f82610fb6565b9050919050565b61118f81611174565b811461119a57600080fd5b50565b6000813590506111ac81611186565b92915050565b6000602082840312156111c8576111c7610fb1565b5b60006111d68482850161119d565b91505092915050565b6000602082840312156111f5576111f4610fb1565b5b600061120384828501610fff565b91505092915050565b60006020828403121561122257611221610fb1565b5b600061123084828501611035565b91505092915050565b600080604083850312156112505761124f610fb1565b5b600061125e85828601610fff565b925050602061126f85828601610fff565b9150509250929050565b7f4e487b7100000000000000000000000000000000000000000000000000000000600052602260045260246000fd5b600060028204905060018216806112c057607f821691505b6020821081036112d3576112d2611279565b5b50919050565b7f4e487b7100000000000000000000000000000000000000000000000000000000600052601160045260246000fd5b600061131382611014565b915061131e83611014565b9250828201905080821115611336576113356112d9565b5b92915050565b7f4f6e6c79207370656369616c20616464726573732063616e206d6f646966792060008201527f6461746100000000000000000000000000000000000000000000000000000000602082015250565b6000611398602483610f0a565b91506113a38261133c565b604082019050919050565b600060208201905081810360008301526113c78161138b565b9050919050565b600081905092915050565b50565b60006113e96000836113ce565b91506113f4826113d9565b600082019050919050565b600061140a826113dc565b9150819050919050565b7f4661696c656420746f2077697468647261770000000000000000000000000000600082015250565b600061144a601283610f0a565b915061145582611414565b602082019050919050565b600060208201905081810360008301526114798161143d565b9050919050565b7f45524332303a2064656372656173656420616c6c6f77616e63652062656c6f7760008201527f207a65726f000000000000000000000000000000000000000000000000000000602082015250565b60006114dc602583610f0a565b91506114e782611480565b604082019050919050565b6000602082019050818103600083015261150b816114cf565b9050919050565b7f536f7272792c207468652073616c6520697320636c6f73656400000000000000600082015250565b6000611548601983610f0a565b915061155382611512565b602082019050919050565b600060208201905081810360008301526115778161153b565b9050919050565b600061158982611014565b915061159483611014565b92508282026115a281611014565b915082820484148315176115b9576115b86112d9565b5b5092915050565b7f537570706c792077696c6c20657863656564206d6178696d756d000000000000600082015250565b60006115f6601a83610f0a565b9150611601826115c0565b602082019050919050565b60006020820190508181036000830152611625816115e9565b9050919050565b7f45524332303a20617070726f76652066726f6d20746865207a65726f2061646460008201527f7265737300000000000000000000000000000000000000000000000000000000602082015250565b6000611688602483610f0a565b91506116938261162c565b604082019050919050565b600060208201905081810360008301526116b78161167b565b9050919050565b7f45524332303a20617070726f766520746f20746865207a65726f20616464726560008201527f7373000000000000000000000000000000000000000000000000000000000000602082015250565b600061171a602283610f0a565b9150611725826116be565b604082019050919050565b600060208201905081810360008301526117498161170d565b9050919050565b7f45524332303a20696e73756666696369656e7420616c6c6f77616e6365000000600082015250565b6000611786601d83610f0a565b915061179182611750565b602082019050919050565b600060208201905081810360008301526117b581611779565b9050919050565b7f45524332303a207472616e736665722066726f6d20746865207a65726f20616460008201527f6472657373000000000000000000000000000000000000000000000000000000602082015250565b6000611818602583610f0a565b9150611823826117bc565b604082019050919050565b600060208201905081810360008301526118478161180b565b9050919050565b7f45524332303a207472616e7366657220746f20746865207a65726f206164647260008201527f6573730000000000000000000000000000000000000000000000000000000000602082015250565b60006118aa602383610f0a565b91506118b58261184e565b604082019050919050565b600060208201905081810360008301526118d98161189d565b9050919050565b7f45524332303a207472616e7366657220616d6f756e742065786365656473206260008201527f616c616e63650000000000000000000000000000000000000000000000000000602082015250565b600061193c602683610f0a565b9150611947826118e0565b604082019050919050565b6000602082019050818103600083015261196b8161192f565b9050919050565b7f45524332303a206d696e7420746f20746865207a65726f206164647265737300600082015250565b60006119a8601f83610f0a565b91506119b382611972565b602082019050919050565b600060208201905081810360008301526119d78161199b565b905091905056fea26469706673582212206644f386d0c95c2b52dc75c87febb7cc4492dd6ddcd12b2ba8819154f84eb58064736f6c63430008110033",
  "linkReferences": {},
  "deployedLinkReferences": {}
}