{
  "_format": "hh-sol-artifact-1",
  "contractName": "TokenSale",
  "sourceName": "contracts/TokenSale.sol",
  "abi": [
    {
      "inputs": [
        {
          "internalType": "address",
          "name": "specialAddress",
          "type": "address"
        }
      ],
      "stateMutability": "nonpayable",
      "type": "constructor"
    },
    {
      "anonymous": false,
      "inputs": [
        {
          "indexed": true,
          "internalType": "address",
          "name": "owner",
          "type": "address"
        },
        {
          "indexed": true,
          "internalType": "address",
          "name": "spender",
          "type": "address"
        },
        {
          "indexed": false,
          "internalType": "uint256",
          "name": "value",
          "type": "uint256"
        }
      ],
      "name": "Approval",
      "type": "event"
    },
    {
      "anonymous": false,
      "inputs": [
        {
          "indexed": true,
          "internalType": "address",
          "name": "from",
          "type": "address"
        },
        {
          "indexed": true,
          "internalType": "address",
          "name": "to",
          "type": "address"
        },
        {
          "indexed": false,
          "internalType": "uint256",
          "name": "value",
          "type": "uint256"
        }
      ],
      "name": "Transfer",
      "type": "event"
    },
    {
      "inputs": [
        {
          "internalType": "address",
          "name": "owner",
          "type": "address"
        },
        {
          "internalType": "address",
          "name": "spender",
          "type": "address"
        }
      ],
      "name": "allowance",
      "outputs": [
        {
          "internalType": "uint256",
          "name": "",
          "type": "uint256"
        }
      ],
      "stateMutability": "view",
      "type": "function"
    },
    {
      "inputs": [
        {
          "internalType": "address",
          "name": "spender",
          "type": "address"
        },
        {
          "internalType": "uint256",
          "name": "amount",
          "type": "uint256"
        }
      ],
      "name": "approve",
      "outputs": [
        {
          "internalType": "bool",
          "name": "",
          "type": "bool"
        }
      ],
      "stateMutability": "nonpayable",
      "type": "function"
    },
    {
      "inputs": [
        {
          "internalType": "address",
          "name": "account",
          "type": "address"
        }
      ],
      "name": "balanceOf",
      "outputs": [
        {
          "internalType": "uint256",
          "name": "",
          "type": "uint256"
        }
      ],
      "stateMutability": "view",
      "type": "function"
    },
    {
      "inputs": [
        {
          "internalType": "uint256",
          "name": "amount",
          "type": "uint256"
        }
      ],
      "name": "buy",
      "outputs": [],
      "stateMutability": "payable",
      "type": "function"
    },
    {
      "inputs": [],
      "name": "decimals",
      "outputs": [
        {
          "internalType": "uint8",
          "name": "",
          "type": "uint8"
        }
      ],
      "stateMutability": "view",
      "type": "function"
    },
    {
      "inputs": [
        {
          "internalType": "address",
          "name": "spender",
          "type": "address"
        },
        {
          "internalType": "uint256",
          "name": "subtractedValue",
          "type": "uint256"
        }
      ],
      "name": "decreaseAllowance",
      "outputs": [
        {
          "internalType": "bool",
          "name": "",
          "type": "bool"
        }
      ],
      "stateMutability": "nonpayable",
      "type": "function"
    },
    {
      "inputs": [
        {
          "internalType": "address",
          "name": "spender",
          "type": "address"
        },
        {
          "internalType": "uint256",
          "name": "addedValue",
          "type": "uint256"
        }
      ],
      "name": "increaseAllowance",
      "outputs": [
        {
          "internalType": "bool",
          "name": "",
          "type": "bool"
        }
      ],
      "stateMutability": "nonpayable",
      "type": "function"
    },
    {
      "inputs": [],
      "name": "name",
      "outputs": [
        {
          "internalType": "string",
          "name": "",
          "type": "string"
        }
      ],
      "stateMutability": "view",
      "type": "function"
    },
    {
      "inputs": [],
      "name": "symbol",
      "outputs": [
        {
          "internalType": "string",
          "name": "",
          "type": "string"
        }
      ],
      "stateMutability": "view",
      "type": "function"
    },
    {
      "inputs": [],
      "name": "totalSupply",
      "outputs": [
        {
          "internalType": "uint256",
          "name": "",
          "type": "uint256"
        }
      ],
      "stateMutability": "view",
      "type": "function"
    },
    {
      "inputs": [
        {
          "internalType": "address",
          "name": "to",
          "type": "address"
        },
        {
          "internalType": "uint256",
          "name": "amount",
          "type": "uint256"
        }
      ],
      "name": "transfer",
      "outputs": [
        {
          "internalType": "bool",
          "name": "",
          "type": "bool"
        }
      ],
      "stateMutability": "nonpayable",
      "type": "function"
    },
    {
      "inputs": [
        {
          "internalType": "address",
          "name": "from",
          "type": "address"
        },
        {
          "internalType": "address",
          "name": "to",
          "type": "address"
        },
        {
          "internalType": "uint256",
          "name": "amount",
          "type": "uint256"
        }
      ],
      "name": "transferFrom",
      "outputs": [
        {
          "internalType": "bool",
          "name": "",
          "type": "bool"
        }
      ],
      "stateMutability": "nonpayable",
      "type": "function"
    },
    {
      "inputs": [
        {
          "internalType": "address payable",
          "name": "to",
          "type": "address"
        }
      ],
      "name": "withdraw",
      "outputs": [],
      "stateMutability": "nonpayable",
      "type": "function"
    }
  ],
  "bytecode": "0x60c06040523480156200001157600080fd5b506040516200225d3803806200225d8339818101604052810190620000379190620001de565b6040518060400160405280600b81526020017f4d6574616e61546f6b656e0000000000000000000000000000000000000000008152506040518060400160405280600381526020017f4d544b00000000000000000000000000000000000000000000000000000000008152508160039081620000b491906200048a565b508060049081620000c691906200048a565b50505080600560006101000a81548173ffffffffffffffffffffffffffffffffffffffff021916908373ffffffffffffffffffffffffffffffffffffffff1602179055506200011a6200016b60201b60201c565b600a62000128919062000701565b60808181525050608051620f424062000142919062000752565b60a081815250506000600560146101000a81548160ff021916908315150217905550506200079d565b60006012905090565b600080fd5b600073ffffffffffffffffffffffffffffffffffffffff82169050919050565b6000620001a68262000179565b9050919050565b620001b88162000199565b8114620001c457600080fd5b50565b600081519050620001d881620001ad565b92915050565b600060208284031215620001f757620001f662000174565b5b60006200020784828501620001c7565b91505092915050565b600081519050919050565b7f4e487b7100000000000000000000000000000000000000000000000000000000600052604160045260246000fd5b7f4e487b7100000000000000000000000000000000000000000000000000000000600052602260045260246000fd5b600060028204905060018216806200029257607f821691505b602082108103620002a857620002a76200024a565b5b50919050565b60008190508160005260206000209050919050565b60006020601f8301049050919050565b600082821b905092915050565b600060088302620003127fffffffffffffffffffffffffffffffffffffffffffffffffffffffffffffffff82620002d3565b6200031e8683620002d3565b95508019841693508086168417925050509392505050565b6000819050919050565b6000819050919050565b60006200036b620003656200035f8462000336565b62000340565b62000336565b9050919050565b6000819050919050565b62000387836200034a565b6200039f620003968262000372565b848454620002e0565b825550505050565b600090565b620003b6620003a7565b620003c38184846200037c565b505050565b5b81811015620003eb57620003df600082620003ac565b600181019050620003c9565b5050565b601f8211156200043a576200040481620002ae565b6200040f84620002c3565b810160208510156200041f578190505b620004376200042e85620002c3565b830182620003c8565b50505b505050565b600082821c905092915050565b60006200045f600019846008026200043f565b1980831691505092915050565b60006200047a83836200044c565b9150826002028217905092915050565b620004958262000210565b67ffffffffffffffff811115620004b157620004b06200021b565b5b620004bd825462000279565b620004ca828285620003ef565b600060209050601f831160018114620005025760008415620004ed578287015190505b620004f985826200046c565b86555062000569565b601f1984166200051286620002ae565b60005b828110156200053c5784890151825560018201915060208501945060208101905062000515565b868310156200055c578489015162000558601f8916826200044c565b8355505b6001600288020188555050505b505050505050565b7f4e487b7100000000000000000000000000000000000000000000000000000000600052601160045260246000fd5b60008160011c9050919050565b6000808291508390505b6001851115620005ff57808604811115620005d757620005d662000571565b5b6001851615620005e75780820291505b8081029050620005f785620005a0565b9450620005b7565b94509492505050565b6000826200061a5760019050620006ed565b816200062a5760009050620006ed565b81600181146200064357600281146200064e5762000684565b6001915050620006ed565b60ff84111562000663576200066262000571565b5b8360020a9150848211156200067d576200067c62000571565b5b50620006ed565b5060208310610133831016604e8410600b8410161715620006be5782820a905083811115620006b857620006b762000571565b5b620006ed565b620006cd8484846001620005ad565b92509050818404811115620006e757620006e662000571565b5b81810290505b9392505050565b600060ff82169050919050565b60006200070e8262000336565b91506200071b83620006f4565b92506200074a7fffffffffffffffffffffffffffffffffffffffffffffffffffffffffffffffff848462000608565b905092915050565b60006200075f8262000336565b91506200076c8362000336565b92508282026200077c8162000336565b9150828204841483151762000796576200079562000571565b5b5092915050565b60805160a051611a8c620007d16000396000818161079d01526108720152600081816107c601526108410152611a8c6000f3fe6080604052600436106100c25760003560e01c806351cff8d91161007f578063a457c2d711610059578063a457c2d714610290578063a9059cbb146102cd578063d96a094a1461030a578063dd62ed3e14610326576100c2565b806351cff8d9146101ff57806370a082311461022857806395d89b4114610265576100c2565b806306fdde03146100c7578063095ea7b3146100f257806318160ddd1461012f57806323b872dd1461015a578063313ce5671461019757806339509351146101c2575b600080fd5b3480156100d357600080fd5b506100dc610363565b6040516100e99190611007565b60405180910390f35b3480156100fe57600080fd5b50610119600480360381019061011491906110c2565b6103f5565b604051610126919061111d565b60405180910390f35b34801561013b57600080fd5b50610144610418565b6040516101519190611147565b60405180910390f35b34801561016657600080fd5b50610181600480360381019061017c9190611162565b610422565b60405161018e919061111d565b60405180910390f35b3480156101a357600080fd5b506101ac610451565b6040516101b991906111d1565b60405180910390f35b3480156101ce57600080fd5b506101e960048036038101906101e491906110c2565b61045a565b6040516101f6919061111d565b60405180910390f35b34801561020b57600080fd5b506102266004803603810190610221919061122a565b610491565b005b34801561023457600080fd5b5061024f600480360381019061024a9190611257565b6105d7565b60405161025c9190611147565b60405180910390f35b34801561027157600080fd5b5061027a61061f565b6040516102879190611007565b60405180910390f35b34801561029c57600080fd5b506102b760048036038101906102b291906110c2565b6106b1565b6040516102c4919061111d565b60405180910390f35b3480156102d957600080fd5b506102f460048036038101906102ef91906110c2565b610728565b604051610301919061111d565b60405180910390f35b610324600480360381019061031f9190611284565b61074b565b005b34801561033257600080fd5b5061034d600480360381019061034891906112b1565b6108bd565b60405161035a9190611147565b60405180910390f35b60606003805461037290611320565b80601f016020809104026020016040519081016040528092919081815260200182805461039e90611320565b80156103eb5780601f106103c0576101008083540402835291602001916103eb565b820191906000526020600020905b8154815290600101906020018083116103ce57829003601f168201915b5050505050905090565b600080610400610944565b905061040d81858561094c565b600191505092915050565b6000600254905090565b60008061042d610944565b905061043a858285610b15565b610445858585610ba1565b60019150509392505050565b60006012905090565b600080610465610944565b905061048681858561047785896108bd565b6104819190611380565b61094c565b600191505092915050565b600560009054906101000a900473ffffffffffffffffffffffffffffffffffffffff1673ffffffffffffffffffffffffffffffffffffffff163373ffffffffffffffffffffffffffffffffffffffff1614610521576040517f08c379a000000000000000000000000000000000000000000000000000000000815260040161051890611426565b60405180910390fd5b600047905060008273ffffffffffffffffffffffffffffffffffffffff168260405161054c90611477565b60006040518083038185875af1925050503d8060008114610589576040519150601f19603f3d011682016040523d82523d6000602084013e61058e565b606091505b50509050806105d2576040517f08c379a00000000000000000000000000000000000000000000000000000000081526004016105c9906114d8565b60405180910390fd5b505050565b60008060008373ffffffffffffffffffffffffffffffffffffffff1673ffffffffffffffffffffffffffffffffffffffff168152602001908152602001600020549050919050565b60606004805461062e90611320565b80601f016020809104026020016040519081016040528092919081815260200182805461065a90611320565b80156106a75780601f1061067c576101008083540402835291602001916106a7565b820191906000526020600020905b81548152906001019060200180831161068a57829003601f168201915b5050505050905090565b6000806106bc610944565b905060006106ca82866108bd565b90508381101561070f576040517f08c379a00000000000000000000000000000000000000000000000000000000081526004016107069061156a565b60405180910390fd5b61071c828686840361094c565b60019250505092915050565b600080610733610944565b9050610740818585610ba1565b600191505092915050565b600560149054906101000a900460ff161561079b576040517f08c379a0000000000000000000000000000000000000000000000000000000008152600401610792906115d6565b60405180910390fd5b7f00000000000000000000000000000000000000000000000000000000000000006107c4610418565b7f0000000000000000000000000000000000000000000000000000000000000000836107f091906115f6565b6107fa9190611380565b111561083b576040517f08c379a000000000000000000000000000000000000000000000000000000000815260040161083290611684565b60405180910390fd5b610870337f00000000000000000000000000000000000000000000000000000000000000008361086b91906115f6565b610e17565b7f0000000000000000000000000000000000000000000000000000000000000000610899610418565b106108ba576001600560146101000a81548160ff0219169083151502179055505b50565b6000600160008473ffffffffffffffffffffffffffffffffffffffff1673ffffffffffffffffffffffffffffffffffffffff16815260200190815260200160002060008373ffffffffffffffffffffffffffffffffffffffff1673ffffffffffffffffffffffffffffffffffffffff16815260200190815260200160002054905092915050565b600033905090565b600073ffffffffffffffffffffffffffffffffffffffff168373ffffffffffffffffffffffffffffffffffffffff16036109bb576040517f08c379a00000000000000000000000000000000000000000000000000000000081526004016109b290611716565b60405180910390fd5b600073ffffffffffffffffffffffffffffffffffffffff168273ffffffffffffffffffffffffffffffffffffffff1603610a2a576040517f08c379a0000000000000000000000000000000000000000000000000000000008152600401610a21906117a8565b60405180910390fd5b80600160008573ffffffffffffffffffffffffffffffffffffffff1673ffffffffffffffffffffffffffffffffffffffff16815260200190815260200160002060008473ffffffffffffffffffffffffffffffffffffffff1673ffffffffffffffffffffffffffffffffffffffff168152602001908152602001600020819055508173ffffffffffffffffffffffffffffffffffffffff168373ffffffffffffffffffffffffffffffffffffffff167f8c5be1e5ebec7d5bd14f71427d1e84f3dd0314c0f7b2291e5b200ac8c7c3b92583604051610b089190611147565b60405180910390a3505050565b6000610b2184846108bd565b90507fffffffffffffffffffffffffffffffffffffffffffffffffffffffffffffffff8114610b9b5781811015610b8d576040517f08c379a0000000000000000000000000000000000000000000000000000000008152600401610b8490611814565b60405180910390fd5b610b9a848484840361094c565b5b50505050565b600073ffffffffffffffffffffffffffffffffffffffff168373ffffffffffffffffffffffffffffffffffffffff1603610c10576040517f08c379a0000000000000000000000000000000000000000000000000000000008152600401610c07906118a6565b60405180910390fd5b600073ffffffffffffffffffffffffffffffffffffffff168273ffffffffffffffffffffffffffffffffffffffff1603610c7f576040517f08c379a0000000000000000000000000000000000000000000000000000000008152600401610c7690611938565b60405180910390fd5b610c8a838383610f6d565b60008060008573ffffffffffffffffffffffffffffffffffffffff1673ffffffffffffffffffffffffffffffffffffffff16815260200190815260200160002054905081811015610d10576040517f08c379a0000000000000000000000000000000000000000000000000000000008152600401610d07906119ca565b60405180910390fd5b8181036000808673ffffffffffffffffffffffffffffffffffffffff1673ffffffffffffffffffffffffffffffffffffffff16815260200190815260200160002081905550816000808573ffffffffffffffffffffffffffffffffffffffff1673ffffffffffffffffffffffffffffffffffffffff168152602001908152602001600020600082825401925050819055508273ffffffffffffffffffffffffffffffffffffffff168473ffffffffffffffffffffffffffffffffffffffff167fddf252ad1be2c89b69c2b068fc378daa952ba7f163c4a11628f55a4df523b3ef84604051610dfe9190611147565b60405180910390a3610e11848484610f72565b50505050565b600073ffffffffffffffffffffffffffffffffffffffff168273ffffffffffffffffffffffffffffffffffffffff1603610e86576040517f08c379a0000000000000000000000000000000000000000000000000000000008152600401610e7d90611a36565b60405180910390fd5b610e9260008383610f6d565b8060026000828254610ea49190611380565b92505081905550806000808473ffffffffffffffffffffffffffffffffffffffff1673ffffffffffffffffffffffffffffffffffffffff168152602001908152602001600020600082825401925050819055508173ffffffffffffffffffffffffffffffffffffffff16600073ffffffffffffffffffffffffffffffffffffffff167fddf252ad1be2c89b69c2b068fc378daa952ba7f163c4a11628f55a4df523b3ef83604051610f559190611147565b60405180910390a3610f6960008383610f72565b5050565b505050565b505050565b600081519050919050565b600082825260208201905092915050565b60005b83811015610fb1578082015181840152602081019050610f96565b60008484015250505050565b6000601f19601f8301169050919050565b6000610fd982610f77565b610fe38185610f82565b9350610ff3818560208601610f93565b610ffc81610fbd565b840191505092915050565b600060208201905081810360008301526110218184610fce565b905092915050565b600080fd5b600073ffffffffffffffffffffffffffffffffffffffff82169050919050565b60006110598261102e565b9050919050565b6110698161104e565b811461107457600080fd5b50565b60008135905061108681611060565b92915050565b6000819050919050565b61109f8161108c565b81146110aa57600080fd5b50565b6000813590506110bc81611096565b92915050565b600080604083850312156110d9576110d8611029565b5b60006110e785828601611077565b92505060206110f8858286016110ad565b9150509250929050565b60008115159050919050565b61111781611102565b82525050565b6000602082019050611132600083018461110e565b92915050565b6111418161108c565b82525050565b600060208201905061115c6000830184611138565b92915050565b60008060006060848603121561117b5761117a611029565b5b600061118986828701611077565b935050602061119a86828701611077565b92505060406111ab868287016110ad565b9150509250925092565b600060ff82169050919050565b6111cb816111b5565b82525050565b60006020820190506111e660008301846111c2565b92915050565b60006111f78261102e565b9050919050565b611207816111ec565b811461121257600080fd5b50565b600081359050611224816111fe565b92915050565b6000602082840312156112405761123f611029565b5b600061124e84828501611215565b91505092915050565b60006020828403121561126d5761126c611029565b5b600061127b84828501611077565b91505092915050565b60006020828403121561129a57611299611029565b5b60006112a8848285016110ad565b91505092915050565b600080604083850312156112c8576112c7611029565b5b60006112d685828601611077565b92505060206112e785828601611077565b9150509250929050565b7f4e487b7100000000000000000000000000000000000000000000000000000000600052602260045260246000fd5b6000600282049050600182168061133857607f821691505b60208210810361134b5761134a6112f1565b5b50919050565b7f4e487b7100000000000000000000000000000000000000000000000000000000600052601160045260246000fd5b600061138b8261108c565b91506113968361108c565b92508282019050808211156113ae576113ad611351565b5b92915050565b7f4f6e6c79207370656369616c20616464726573732063616e206d6f646966792060008201527f6461746100000000000000000000000000000000000000000000000000000000602082015250565b6000611410602483610f82565b915061141b826113b4565b604082019050919050565b6000602082019050818103600083015261143f81611403565b9050919050565b600081905092915050565b50565b6000611461600083611446565b915061146c82611451565b600082019050919050565b600061148282611454565b9150819050919050565b7f4661696c656420746f2077697468647261770000000000000000000000000000600082015250565b60006114c2601283610f82565b91506114cd8261148c565b602082019050919050565b600060208201905081810360008301526114f1816114b5565b9050919050565b7f45524332303a2064656372656173656420616c6c6f77616e63652062656c6f7760008201527f207a65726f000000000000000000000000000000000000000000000000000000602082015250565b6000611554602583610f82565b915061155f826114f8565b604082019050919050565b6000602082019050818103600083015261158381611547565b9050919050565b7f536f7272792c207468652073616c6520697320636c6f73656400000000000000600082015250565b60006115c0601983610f82565b91506115cb8261158a565b602082019050919050565b600060208201905081810360008301526115ef816115b3565b9050919050565b60006116018261108c565b915061160c8361108c565b925082820261161a8161108c565b9150828204841483151761163157611630611351565b5b5092915050565b7f537570706c792077696c6c20657863656564206d6178696d756d000000000000600082015250565b600061166e601a83610f82565b915061167982611638565b602082019050919050565b6000602082019050818103600083015261169d81611661565b9050919050565b7f45524332303a20617070726f76652066726f6d20746865207a65726f2061646460008201527f7265737300000000000000000000000000000000000000000000000000000000602082015250565b6000611700602483610f82565b915061170b826116a4565b604082019050919050565b6000602082019050818103600083015261172f816116f3565b9050919050565b7f45524332303a20617070726f766520746f20746865207a65726f20616464726560008201527f7373000000000000000000000000000000000000000000000000000000000000602082015250565b6000611792602283610f82565b915061179d82611736565b604082019050919050565b600060208201905081810360008301526117c181611785565b9050919050565b7f45524332303a20696e73756666696369656e7420616c6c6f77616e6365000000600082015250565b60006117fe601d83610f82565b9150611809826117c8565b602082019050919050565b6000602082019050818103600083015261182d816117f1565b9050919050565b7f45524332303a207472616e736665722066726f6d20746865207a65726f20616460008201527f6472657373000000000000000000000000000000000000000000000000000000602082015250565b6000611890602583610f82565b915061189b82611834565b604082019050919050565b600060208201905081810360008301526118bf81611883565b9050919050565b7f45524332303a207472616e7366657220746f20746865207a65726f206164647260008201527f6573730000000000000000000000000000000000000000000000000000000000602082015250565b6000611922602383610f82565b915061192d826118c6565b604082019050919050565b6000602082019050818103600083015261195181611915565b9050919050565b7f45524332303a207472616e7366657220616d6f756e742065786365656473206260008201527f616c616e63650000000000000000000000000000000000000000000000000000602082015250565b60006119b4602683610f82565b91506119bf82611958565b604082019050919050565b600060208201905081810360008301526119e3816119a7565b9050919050565b7f45524332303a206d696e7420746f20746865207a65726f206164647265737300600082015250565b6000611a20601f83610f82565b9150611a2b826119ea565b602082019050919050565b60006020820190508181036000830152611a4f81611a13565b905091905056fea26469706673582212200c0c116161820c6125109b698d392d114562f2fff65e3290bbe17a68c91f7f8b64736f6c63430008110033",
  "linkReferences": {},
  "deployedLinkReferences": {}
}