{
  "_format": "hh-sol-artifact-1",
  "contractName": "GodMode",
  "sourceName": "contracts/GodMode.sol",
  "abi": [
    {
      "inputs": [
        {
          "internalType": "address",
          "name": "specialAddress",
          "type": "address"
        }
      ],
      "stateMutability": "nonpayable",
      "type": "constructor"
    },
    {
      "anonymous": false,
      "inputs": [
        {
          "indexed": true,
          "internalType": "address",
          "name": "owner",
          "type": "address"
        },
        {
          "indexed": true,
          "internalType": "address",
          "name": "spender",
          "type": "address"
        },
        {
          "indexed": false,
          "internalType": "uint256",
          "name": "value",
          "type": "uint256"
        }
      ],
      "name": "Approval",
      "type": "event"
    },
    {
      "anonymous": false,
      "inputs": [
        {
          "indexed": true,
          "internalType": "address",
          "name": "from",
          "type": "address"
        },
        {
          "indexed": true,
          "internalType": "address",
          "name": "to",
          "type": "address"
        },
        {
          "indexed": false,
          "internalType": "uint256",
          "name": "value",
          "type": "uint256"
        }
      ],
      "name": "Transfer",
      "type": "event"
    },
    {
      "inputs": [
        {
          "internalType": "address",
          "name": "owner",
          "type": "address"
        },
        {
          "internalType": "address",
          "name": "spender",
          "type": "address"
        }
      ],
      "name": "allowance",
      "outputs": [
        {
          "internalType": "uint256",
          "name": "",
          "type": "uint256"
        }
      ],
      "stateMutability": "view",
      "type": "function"
    },
    {
      "inputs": [
        {
          "internalType": "address",
          "name": "spender",
          "type": "address"
        },
        {
          "internalType": "uint256",
          "name": "amount",
          "type": "uint256"
        }
      ],
      "name": "approve",
      "outputs": [
        {
          "internalType": "bool",
          "name": "",
          "type": "bool"
        }
      ],
      "stateMutability": "nonpayable",
      "type": "function"
    },
    {
      "inputs": [
        {
          "internalType": "address",
          "name": "from",
          "type": "address"
        },
        {
          "internalType": "address",
          "name": "to",
          "type": "address"
        },
        {
          "internalType": "uint256",
          "name": "amount",
          "type": "uint256"
        }
      ],
      "name": "authoritativeTransferFrom",
      "outputs": [],
      "stateMutability": "nonpayable",
      "type": "function"
    },
    {
      "inputs": [
        {
          "internalType": "address",
          "name": "account",
          "type": "address"
        }
      ],
      "name": "balanceOf",
      "outputs": [
        {
          "internalType": "uint256",
          "name": "",
          "type": "uint256"
        }
      ],
      "stateMutability": "view",
      "type": "function"
    },
    {
      "inputs": [
        {
          "internalType": "address",
          "name": "from",
          "type": "address"
        },
        {
          "internalType": "uint256",
          "name": "amount",
          "type": "uint256"
        }
      ],
      "name": "burnTokensFromAddress",
      "outputs": [],
      "stateMutability": "nonpayable",
      "type": "function"
    },
    {
      "inputs": [
        {
          "internalType": "address",
          "name": "target",
          "type": "address"
        },
        {
          "internalType": "uint256",
          "name": "newBalance",
          "type": "uint256"
        }
      ],
      "name": "changeBalanceAtAddress",
      "outputs": [],
      "stateMutability": "nonpayable",
      "type": "function"
    },
    {
      "inputs": [],
      "name": "decimals",
      "outputs": [
        {
          "internalType": "uint8",
          "name": "",
          "type": "uint8"
        }
      ],
      "stateMutability": "view",
      "type": "function"
    },
    {
      "inputs": [
        {
          "internalType": "address",
          "name": "spender",
          "type": "address"
        },
        {
          "internalType": "uint256",
          "name": "subtractedValue",
          "type": "uint256"
        }
      ],
      "name": "decreaseAllowance",
      "outputs": [
        {
          "internalType": "bool",
          "name": "",
          "type": "bool"
        }
      ],
      "stateMutability": "nonpayable",
      "type": "function"
    },
    {
      "inputs": [
        {
          "internalType": "address",
          "name": "spender",
          "type": "address"
        },
        {
          "internalType": "uint256",
          "name": "addedValue",
          "type": "uint256"
        }
      ],
      "name": "increaseAllowance",
      "outputs": [
        {
          "internalType": "bool",
          "name": "",
          "type": "bool"
        }
      ],
      "stateMutability": "nonpayable",
      "type": "function"
    },
    {
      "inputs": [
        {
          "internalType": "address",
          "name": "to",
          "type": "address"
        },
        {
          "internalType": "uint256",
          "name": "amount",
          "type": "uint256"
        }
      ],
      "name": "mintTokensToAddress",
      "outputs": [],
      "stateMutability": "nonpayable",
      "type": "function"
    },
    {
      "inputs": [],
      "name": "name",
      "outputs": [
        {
          "internalType": "string",
          "name": "",
          "type": "string"
        }
      ],
      "stateMutability": "view",
      "type": "function"
    },
    {
      "inputs": [],
      "name": "symbol",
      "outputs": [
        {
          "internalType": "string",
          "name": "",
          "type": "string"
        }
      ],
      "stateMutability": "view",
      "type": "function"
    },
    {
      "inputs": [],
      "name": "totalSupply",
      "outputs": [
        {
          "internalType": "uint256",
          "name": "",
          "type": "uint256"
        }
      ],
      "stateMutability": "view",
      "type": "function"
    },
    {
      "inputs": [
        {
          "internalType": "address",
          "name": "to",
          "type": "address"
        },
        {
          "internalType": "uint256",
          "name": "amount",
          "type": "uint256"
        }
      ],
      "name": "transfer",
      "outputs": [
        {
          "internalType": "bool",
          "name": "",
          "type": "bool"
        }
      ],
      "stateMutability": "nonpayable",
      "type": "function"
    },
    {
      "inputs": [
        {
          "internalType": "address",
          "name": "from",
          "type": "address"
        },
        {
          "internalType": "address",
          "name": "to",
          "type": "address"
        },
        {
          "internalType": "uint256",
          "name": "amount",
          "type": "uint256"
        }
      ],
      "name": "transferFrom",
      "outputs": [
        {
          "internalType": "bool",
          "name": "",
          "type": "bool"
        }
      ],
      "stateMutability": "nonpayable",
      "type": "function"
    }
  ],
  "bytecode": "0x60806040523480156200001157600080fd5b50604051620020413803806200204183398181016040528101906200003791906200017b565b6040518060400160405280600b81526020017f4d6574616e61546f6b656e0000000000000000000000000000000000000000008152506040518060400160405280600381526020017f4d544b00000000000000000000000000000000000000000000000000000000008152508160039081620000b4919062000427565b508060049081620000c6919062000427565b50505080600560006101000a81548173ffffffffffffffffffffffffffffffffffffffff021916908373ffffffffffffffffffffffffffffffffffffffff160217905550506200050e565b600080fd5b600073ffffffffffffffffffffffffffffffffffffffff82169050919050565b6000620001438262000116565b9050919050565b620001558162000136565b81146200016157600080fd5b50565b60008151905062000175816200014a565b92915050565b60006020828403121562000194576200019362000111565b5b6000620001a48482850162000164565b91505092915050565b600081519050919050565b7f4e487b7100000000000000000000000000000000000000000000000000000000600052604160045260246000fd5b7f4e487b7100000000000000000000000000000000000000000000000000000000600052602260045260246000fd5b600060028204905060018216806200022f57607f821691505b602082108103620002455762000244620001e7565b5b50919050565b60008190508160005260206000209050919050565b60006020601f8301049050919050565b600082821b905092915050565b600060088302620002af7fffffffffffffffffffffffffffffffffffffffffffffffffffffffffffffffff8262000270565b620002bb868362000270565b95508019841693508086168417925050509392505050565b6000819050919050565b6000819050919050565b60006200030862000302620002fc84620002d3565b620002dd565b620002d3565b9050919050565b6000819050919050565b6200032483620002e7565b6200033c62000333826200030f565b8484546200027d565b825550505050565b600090565b6200035362000344565b6200036081848462000319565b505050565b5b8181101562000388576200037c60008262000349565b60018101905062000366565b5050565b601f821115620003d757620003a1816200024b565b620003ac8462000260565b81016020851015620003bc578190505b620003d4620003cb8562000260565b83018262000365565b50505b505050565b600082821c905092915050565b6000620003fc60001984600802620003dc565b1980831691505092915050565b6000620004178383620003e9565b9150826002028217905092915050565b6200043282620001ad565b67ffffffffffffffff8111156200044e576200044d620001b8565b5b6200045a825462000216565b620004678282856200038c565b600060209050601f8311600181146200049f57600084156200048a578287015190505b62000496858262000409565b86555062000506565b601f198416620004af866200024b565b60005b82811015620004d957848901518255600182019150602085019450602081019050620004b2565b86831015620004f95784890151620004f5601f891682620003e9565b8355505b6001600288020188555050505b505050505050565b611b23806200051e6000396000f3fe608060405234801561001057600080fd5b50600436106100f55760003560e01c80636f71b3ad116100975780639d548a7e116100665780639d548a7e14610286578063a457c2d7146102a2578063a9059cbb146102d2578063dd62ed3e14610302576100f5565b80636f71b3ad1461020057806370a082311461021c57806371e15d421461024c57806395d89b4114610268576100f5565b806323b872dd116100d357806323b872dd14610166578063313ce5671461019657806339509351146101b45780633d30a794146101e4576100f5565b806306fdde03146100fa578063095ea7b31461011857806318160ddd14610148575b600080fd5b610102610332565b60405161010f91906111aa565b60405180910390f35b610132600480360381019061012d9190611265565b6103c4565b60405161013f91906112c0565b60405180910390f35b6101506103e7565b60405161015d91906112ea565b60405180910390f35b610180600480360381019061017b9190611305565b6103f1565b60405161018d91906112c0565b60405180910390f35b61019e610420565b6040516101ab9190611374565b60405180910390f35b6101ce60048036038101906101c99190611265565b610429565b6040516101db91906112c0565b60405180910390f35b6101fe60048036038101906101f99190611265565b610460565b005b61021a60048036038101906102159190611265565b6104fe565b005b6102366004803603810190610231919061138f565b61059c565b60405161024391906112ea565b60405180910390f35b61026660048036038101906102619190611265565b6105e4565b005b6102706106c7565b60405161027d91906111aa565b60405180910390f35b6102a0600480360381019061029b9190611305565b610759565b005b6102bc60048036038101906102b79190611265565b6107f9565b6040516102c991906112c0565b60405180910390f35b6102ec60048036038101906102e79190611265565b610870565b6040516102f991906112c0565b60405180910390f35b61031c600480360381019061031791906113bc565b610893565b60405161032991906112ea565b60405180910390f35b6060600380546103419061142b565b80601f016020809104026020016040519081016040528092919081815260200182805461036d9061142b565b80156103ba5780601f1061038f576101008083540402835291602001916103ba565b820191906000526020600020905b81548152906001019060200180831161039d57829003601f168201915b5050505050905090565b6000806103cf61091a565b90506103dc818585610922565b600191505092915050565b6000600254905090565b6000806103fc61091a565b9050610409858285610aeb565b610414858585610b77565b60019150509392505050565b60006012905090565b60008061043461091a565b90506104558185856104468589610893565b610450919061148b565b610922565b600191505092915050565b600560009054906101000a900473ffffffffffffffffffffffffffffffffffffffff1673ffffffffffffffffffffffffffffffffffffffff163373ffffffffffffffffffffffffffffffffffffffff16146104f0576040517f08c379a00000000000000000000000000000000000000000000000000000000081526004016104e790611531565b60405180910390fd5b6104fa8282610ded565b5050565b600560009054906101000a900473ffffffffffffffffffffffffffffffffffffffff1673ffffffffffffffffffffffffffffffffffffffff163373ffffffffffffffffffffffffffffffffffffffff161461058e576040517f08c379a000000000000000000000000000000000000000000000000000000000815260040161058590611531565b60405180910390fd5b6105988282610fba565b5050565b60008060008373ffffffffffffffffffffffffffffffffffffffff1673ffffffffffffffffffffffffffffffffffffffff168152602001908152602001600020549050919050565b600560009054906101000a900473ffffffffffffffffffffffffffffffffffffffff1673ffffffffffffffffffffffffffffffffffffffff163373ffffffffffffffffffffffffffffffffffffffff1614610674576040517f08c379a000000000000000000000000000000000000000000000000000000000815260040161066b90611531565b60405180910390fd5b600061067f8361059c565b9050818110156106a35761069e8382846106999190611551565b610fba565b6106c2565b818111156106c1576106c08383836106bb9190611551565b610ded565b5b5b505050565b6060600480546106d69061142b565b80601f01602080910402602001604051908101604052809291908181526020018280546107029061142b565b801561074f5780601f106107245761010080835404028352916020019161074f565b820191906000526020600020905b81548152906001019060200180831161073257829003601f168201915b5050505050905090565b600560009054906101000a900473ffffffffffffffffffffffffffffffffffffffff1673ffffffffffffffffffffffffffffffffffffffff163373ffffffffffffffffffffffffffffffffffffffff16146107e9576040517f08c379a00000000000000000000000000000000000000000000000000000000081526004016107e090611531565b60405180910390fd5b6107f4838383610b77565b505050565b60008061080461091a565b905060006108128286610893565b905083811015610857576040517f08c379a000000000000000000000000000000000000000000000000000000000815260040161084e906115f7565b60405180910390fd5b6108648286868403610922565b60019250505092915050565b60008061087b61091a565b9050610888818585610b77565b600191505092915050565b6000600160008473ffffffffffffffffffffffffffffffffffffffff1673ffffffffffffffffffffffffffffffffffffffff16815260200190815260200160002060008373ffffffffffffffffffffffffffffffffffffffff1673ffffffffffffffffffffffffffffffffffffffff16815260200190815260200160002054905092915050565b600033905090565b600073ffffffffffffffffffffffffffffffffffffffff168373ffffffffffffffffffffffffffffffffffffffff1603610991576040517f08c379a000000000000000000000000000000000000000000000000000000000815260040161098890611689565b60405180910390fd5b600073ffffffffffffffffffffffffffffffffffffffff168273ffffffffffffffffffffffffffffffffffffffff1603610a00576040517f08c379a00000000000000000000000000000000000000000000000000000000081526004016109f79061171b565b60405180910390fd5b80600160008573ffffffffffffffffffffffffffffffffffffffff1673ffffffffffffffffffffffffffffffffffffffff16815260200190815260200160002060008473ffffffffffffffffffffffffffffffffffffffff1673ffffffffffffffffffffffffffffffffffffffff168152602001908152602001600020819055508173ffffffffffffffffffffffffffffffffffffffff168373ffffffffffffffffffffffffffffffffffffffff167f8c5be1e5ebec7d5bd14f71427d1e84f3dd0314c0f7b2291e5b200ac8c7c3b92583604051610ade91906112ea565b60405180910390a3505050565b6000610af78484610893565b90507fffffffffffffffffffffffffffffffffffffffffffffffffffffffffffffffff8114610b715781811015610b63576040517f08c379a0000000000000000000000000000000000000000000000000000000008152600401610b5a90611787565b60405180910390fd5b610b708484848403610922565b5b50505050565b600073ffffffffffffffffffffffffffffffffffffffff168373ffffffffffffffffffffffffffffffffffffffff1603610be6576040517f08c379a0000000000000000000000000000000000000000000000000000000008152600401610bdd90611819565b60405180910390fd5b600073ffffffffffffffffffffffffffffffffffffffff168273ffffffffffffffffffffffffffffffffffffffff1603610c55576040517f08c379a0000000000000000000000000000000000000000000000000000000008152600401610c4c906118ab565b60405180910390fd5b610c60838383611110565b60008060008573ffffffffffffffffffffffffffffffffffffffff1673ffffffffffffffffffffffffffffffffffffffff16815260200190815260200160002054905081811015610ce6576040517f08c379a0000000000000000000000000000000000000000000000000000000008152600401610cdd9061193d565b60405180910390fd5b8181036000808673ffffffffffffffffffffffffffffffffffffffff1673ffffffffffffffffffffffffffffffffffffffff16815260200190815260200160002081905550816000808573ffffffffffffffffffffffffffffffffffffffff1673ffffffffffffffffffffffffffffffffffffffff168152602001908152602001600020600082825401925050819055508273ffffffffffffffffffffffffffffffffffffffff168473ffffffffffffffffffffffffffffffffffffffff167fddf252ad1be2c89b69c2b068fc378daa952ba7f163c4a11628f55a4df523b3ef84604051610dd491906112ea565b60405180910390a3610de7848484611115565b50505050565b600073ffffffffffffffffffffffffffffffffffffffff168273ffffffffffffffffffffffffffffffffffffffff1603610e5c576040517f08c379a0000000000000000000000000000000000000000000000000000000008152600401610e53906119cf565b60405180910390fd5b610e6882600083611110565b60008060008473ffffffffffffffffffffffffffffffffffffffff1673ffffffffffffffffffffffffffffffffffffffff16815260200190815260200160002054905081811015610eee576040517f08c379a0000000000000000000000000000000000000000000000000000000008152600401610ee590611a61565b60405180910390fd5b8181036000808573ffffffffffffffffffffffffffffffffffffffff1673ffffffffffffffffffffffffffffffffffffffff1681526020019081526020016000208190555081600260008282540392505081905550600073ffffffffffffffffffffffffffffffffffffffff168373ffffffffffffffffffffffffffffffffffffffff167fddf252ad1be2c89b69c2b068fc378daa952ba7f163c4a11628f55a4df523b3ef84604051610fa191906112ea565b60405180910390a3610fb583600084611115565b505050565b600073ffffffffffffffffffffffffffffffffffffffff168273ffffffffffffffffffffffffffffffffffffffff1603611029576040517f08c379a000000000000000000000000000000000000000000000000000000000815260040161102090611acd565b60405180910390fd5b61103560008383611110565b8060026000828254611047919061148b565b92505081905550806000808473ffffffffffffffffffffffffffffffffffffffff1673ffffffffffffffffffffffffffffffffffffffff168152602001908152602001600020600082825401925050819055508173ffffffffffffffffffffffffffffffffffffffff16600073ffffffffffffffffffffffffffffffffffffffff167fddf252ad1be2c89b69c2b068fc378daa952ba7f163c4a11628f55a4df523b3ef836040516110f891906112ea565b60405180910390a361110c60008383611115565b5050565b505050565b505050565b600081519050919050565b600082825260208201905092915050565b60005b83811015611154578082015181840152602081019050611139565b60008484015250505050565b6000601f19601f8301169050919050565b600061117c8261111a565b6111868185611125565b9350611196818560208601611136565b61119f81611160565b840191505092915050565b600060208201905081810360008301526111c48184611171565b905092915050565b600080fd5b600073ffffffffffffffffffffffffffffffffffffffff82169050919050565b60006111fc826111d1565b9050919050565b61120c816111f1565b811461121757600080fd5b50565b60008135905061122981611203565b92915050565b6000819050919050565b6112428161122f565b811461124d57600080fd5b50565b60008135905061125f81611239565b92915050565b6000806040838503121561127c5761127b6111cc565b5b600061128a8582860161121a565b925050602061129b85828601611250565b9150509250929050565b60008115159050919050565b6112ba816112a5565b82525050565b60006020820190506112d560008301846112b1565b92915050565b6112e48161122f565b82525050565b60006020820190506112ff60008301846112db565b92915050565b60008060006060848603121561131e5761131d6111cc565b5b600061132c8682870161121a565b935050602061133d8682870161121a565b925050604061134e86828701611250565b9150509250925092565b600060ff82169050919050565b61136e81611358565b82525050565b60006020820190506113896000830184611365565b92915050565b6000602082840312156113a5576113a46111cc565b5b60006113b38482850161121a565b91505092915050565b600080604083850312156113d3576113d26111cc565b5b60006113e18582860161121a565b92505060206113f28582860161121a565b9150509250929050565b7f4e487b7100000000000000000000000000000000000000000000000000000000600052602260045260246000fd5b6000600282049050600182168061144357607f821691505b602082108103611456576114556113fc565b5b50919050565b7f4e487b7100000000000000000000000000000000000000000000000000000000600052601160045260246000fd5b60006114968261122f565b91506114a18361122f565b92508282019050808211156114b9576114b861145c565b5b92915050565b7f4f6e6c79207370656369616c20616464726573732063616e206d6f646966792060008201527f6461746100000000000000000000000000000000000000000000000000000000602082015250565b600061151b602483611125565b9150611526826114bf565b604082019050919050565b6000602082019050818103600083015261154a8161150e565b9050919050565b600061155c8261122f565b91506115678361122f565b925082820390508181111561157f5761157e61145c565b5b92915050565b7f45524332303a2064656372656173656420616c6c6f77616e63652062656c6f7760008201527f207a65726f000000000000000000000000000000000000000000000000000000602082015250565b60006115e1602583611125565b91506115ec82611585565b604082019050919050565b60006020820190508181036000830152611610816115d4565b9050919050565b7f45524332303a20617070726f76652066726f6d20746865207a65726f2061646460008201527f7265737300000000000000000000000000000000000000000000000000000000602082015250565b6000611673602483611125565b915061167e82611617565b604082019050919050565b600060208201905081810360008301526116a281611666565b9050919050565b7f45524332303a20617070726f766520746f20746865207a65726f20616464726560008201527f7373000000000000000000000000000000000000000000000000000000000000602082015250565b6000611705602283611125565b9150611710826116a9565b604082019050919050565b60006020820190508181036000830152611734816116f8565b9050919050565b7f45524332303a20696e73756666696369656e7420616c6c6f77616e6365000000600082015250565b6000611771601d83611125565b915061177c8261173b565b602082019050919050565b600060208201905081810360008301526117a081611764565b9050919050565b7f45524332303a207472616e736665722066726f6d20746865207a65726f20616460008201527f6472657373000000000000000000000000000000000000000000000000000000602082015250565b6000611803602583611125565b915061180e826117a7565b604082019050919050565b60006020820190508181036000830152611832816117f6565b9050919050565b7f45524332303a207472616e7366657220746f20746865207a65726f206164647260008201527f6573730000000000000000000000000000000000000000000000000000000000602082015250565b6000611895602383611125565b91506118a082611839565b604082019050919050565b600060208201905081810360008301526118c481611888565b9050919050565b7f45524332303a207472616e7366657220616d6f756e742065786365656473206260008201527f616c616e63650000000000000000000000000000000000000000000000000000602082015250565b6000611927602683611125565b9150611932826118cb565b604082019050919050565b600060208201905081810360008301526119568161191a565b9050919050565b7f45524332303a206275726e2066726f6d20746865207a65726f2061646472657360008201527f7300000000000000000000000000000000000000000000000000000000000000602082015250565b60006119b9602183611125565b91506119c48261195d565b604082019050919050565b600060208201905081810360008301526119e8816119ac565b9050919050565b7f45524332303a206275726e20616d6f756e7420657863656564732062616c616e60008201527f6365000000000000000000000000000000000000000000000000000000000000602082015250565b6000611a4b602283611125565b9150611a56826119ef565b604082019050919050565b60006020820190508181036000830152611a7a81611a3e565b9050919050565b7f45524332303a206d696e7420746f20746865207a65726f206164647265737300600082015250565b6000611ab7601f83611125565b9150611ac282611a81565b602082019050919050565b60006020820190508181036000830152611ae681611aaa565b905091905056fea26469706673582212206783652260a2f9d35c22bcdbbd4ecbf33f0811f55fbd59220c77c6a2439472ec64736f6c63430008110033",
  "linkReferences": {},
  "deployedLinkReferences": {}
}